:1012FC0090003CE4F0A3745AF0E4A3F09000411287
:10130C00066E0001C2007F01121442E4FD7F081238
:10131C00196C1214DCD2AF90003CE0FEA3E0FF127B
:10132C0017F290003CE4F0747E12134490003CE4FD
:08133C00F0743612134480EA3C
:0E134400A3F0FF7E001217F27FFA12199E220C
:10187C009001187402F090011414F0A304F0A30466
:0D188C00F0A304F07B017A017914020C0135
:0E19AE007D01E4FF1213F37D017F010213F3AC
:0E19BC007D02E4FF1213F37D027F010213F39C
:0D000E00E4FDFF1213F3E4FD7F010213F384
:0E19CA007D01E4FF1213F37D027F010213F38F
:0E19D8007D02E4FF1213F37D017F010213F381
:0C1A0100900119E0FBA3E0FAA3E0F92239
:0B0EBB00900119EBF0A3EAF0A3E9F0AE
:100EC600E4A3F0A3F0EA494B70037FFF22121A0154
:100ED600900002120424FEC36480948240037FFFC4
:100EE60022900131EEF0E490011CF0A3F0121A01F9
:100EF600900002120424FF3395E0FEC390011DE02A
:100F06009FEE6480F890011CE0648098503EE0FEFD
:100F1600A3E0F5828E83120424FF7D0112196C1260
:100F26001A01A3E0FEA3E0FFF5828E83120424FDDE
:100F3600742F2FF58274013EF583EDF090011DE0CC
:0E0F460004F070A990011CE004F080A17F006F
:010F5400227A
:10197E00742F2FF582E43401F583E0FF12001E224E
:10181A00900135E025E0241EF582E43401F583E0E9
:10182A00FF22900123E0FBA3E0FAA3E0F990000471
:03183A0002042481
:0B0C0100900123EBF0A3EAF0A3E9F060
:100C0C00E4A3F0EA494B70037FFF2212182CFEC3B9
:100C1C006480948240037FFF22900122EEF0E490E6
:100C2C000126F012182CFF900126E0FEC3EF648021
:100C3C00F8EE6480985056EEFF3395E0FEEF25E019
:100C4C00FFEE33FE8F828E83120C9C2FF9EA3EFA54
:100C5C00900001120C9CF98F828E83120424FD7477
:100C6C001E2FF58274013EF583EDF0E92FF9EA3E73
:100C7C00FA900001120424FD741F2FF58274013EBA
:0F0C8C00F583EDF0900126E004F0020C2F7F00BD
:100C9B0022120424FFE4FD12196C900126E0FF33AD
:100CAB0095E0FEEF25E0FFEE33FE900123E0FBA382
:050CBB00E0FAA3E022B5
:1013F300900135EFF0ED14600F14601B2402702789
:1014030012181AE4FDFC800712181A7D017C0012E1
:10141300142DE4FDFC800D12181AE4FDFC12142DAA
:101423007D017C001200987F002212009890013504
:0F143300E025E0241FF582E43401F583E0FF2279
:10196C00EDC3940050057EFF7FFF22121565E4FE47
:02197C00FF2248
:1017CA00900133ECF0A3EDF0900132EFF0E4FD125A
:1017DA00196C900133E07002A3E0700B900132E0C3
:0817EA00FFE4FDFC120098224F
:03009800020D74E2
:04001E001210722228
:101920004C4544206F6E0D0A004C4544206F66669E
:031930000D0A009D
:1010FA004900D6FFFFFFFFFFFFFFFFFF4400D200BA
:03110A00000000E2
:1018CE00E4FDFC9000D2E0F8A3E0F9A3E0FAA3E077
:0518DE00FBD302060E21
:071A3A007F0F7E000219EB93
:04009E00E4FEFF225B
:031A51000219EB8C
:041A4D00E4FEFF2292
:1017F200C3EE64809480401FD3EF94B4EE6480946F
:101802008050147C007D091204A6EF2405FDE43EFD
:07181200FCFEAF051219EB0B
:0118190022AC
:10190D009000D6E0FFE4FD12196C9000D674FFF044
:03191D007F002226
:080003009000D6E0FF7E002210
:10198E009000D6E0F47E0060047F0180027F00228A
:0511E900900136EFF05B
:1011EE009000D2E0FCA3E0FDA3E0FEA3E02401FF0B
:1011FE00E43EFEE43DFDE43CFC9000D21206627F2C
:10120E00E87E031218CE4010E4FDFC7F0812009811
:10121E007BFF7A197920800F7D017C007F081200F8
:10122E00987BFF7A1979291201117FD07E07121847
:0D123E00CE400A9000D212066E00000000A3
:01124B002280
:10124C00A90712198E9000D6E9F0AF05A3ECF0A314
:10125C00EFF0AF03A3EAF0A3EFF09000FAE0FFA3E6
:10126C00E09000DBCFF0A3EFF09000FCE0FFA3E0F8
:10127C009000DDCFF0A3EFF0AF017D0312196C905D
:10128C0000D6E0FF121A417BFF7A0F79557D017C65
:09129C0000E4FF1200667F00224D
:1014DC0012198E9000D67408F0A37402F0A3742035
:1014EC00F0A37409F0A37460F0E4A3F0A3F0A3F0EC
:1014FC00A374B4F09000D6E0FF7D0312196C900039
:10150C00D6E0FF121A417BFF7A0F79557D017C00E2
:05151C00E4FF0200667F
:10110D004100590042008A00006030005A00000181
:10111D0000000000000000010000000000000001C0
:10112D0000000000000000010000000000000001B0
:0D113D0000000000000000000000000000A5
:1013A30075F008A4245BF582E43400F58322E0247D
:1013B30001FFE433FE7C007D06020451EF75F00863
:1013C300A4245AF582E43400F5832275F008A4249A
:1013D3005DF582E43400F5832275F008A4245FF5FB
:1013E30082E43400F58322EBF0A3EAF0A3E9F022D0
:1019330090008AE075F00684A3E0B5F0037F0122EE
:031943007F002200
:1019460090008B1213B190008AE0B505037F012247
:031956007F0022ED
:050E1900900037EFF02E
:100E1E0090008AE0900038F0A3E4F0A3F0A3F01263
:100E2E001933EF60037FFF22900038E0FF75F00664
:100E3E008490008BE0FD65F060701213BFE0FF90B0
:100E4E000037E06F705BA3E0FF1213A3E475F001AF
:100E5E001204DCED1213CEE0FCA3E0FDEF1213A39F
:100E6E00E0FEA3E0C39DEE9C4037900038E01213E5
:100E7E00DCE0FBA3E0FAA3E0F99000391213EA4A92
:100E8E006014900037E0FF900039A3E0FAA3E0F57C
:100E9E00828A831206A3900038E01213A3E4F0A313
:0C0EAE00F0900038E004F0020E367F00E7
:010EBA002215
:0B12A500900046EFF0A3ECF0A3EDF08A
:1012B000E4A3F012194690008BE0FF900049F090F3
:1012C0000046E0FE1213BFEEF0900047E0FEA3E000
:1012D000FF90008BE0FD1213CEEEF0A3EFF0ED12C5
:1012E00013A3E4F0A3F0ED1213DC1213EAED1213D2
:0B12F000B290008BEDF0900049E0FF91
:0112FB0022D0
:10167200AD07121933EF60037FFF22EDFF3395E0D0
:10168200FEEF7803C333CE33CED8F9FF245AF58266
:1016920074003EF583E4F0745F2FF58274003EF52A
:1016A20083E4F0A3F0A3F090008A1213B1EDF07F6F
:0216B200002214
:10006600900041ECF0A3EDF0A31213EA900040EFEC
:10007600F07D017C0012176C900040E0FFA3E0FCCD
:10008600A3E0FDA3E0FBA3E0FAA3E0F91212A57F2B
:02009600002246
:10189900900137EFF0700612000002000090013746
:0B18A900E0B401061200001200002253
:1018E300900138EFF07003020000900138E0B4017A
:0518F3000312000022B9
:10114A004200A600024C008C0000000000000000D3
:04115A000000000091
:1018B400EFF0A3EBF0A3EAF0A3E9F022E02401FFA8
:0A18C400E433FE7C007D03020451B2
:101352009001271218B49000A71218C0AE05900091
:10136200A6E0B506037FFF229000A7EEF0900127CA
:10137200E0FFEE25E025E0248CF582E43400F583DD
:10138200EFF0900128E0FBA3E0FAA3E0F9EE25E0FC
:1013920025E0248DF582E43400F5831218B7AF06F8
:0113A2002228
:10152100900139EFF09000A61218C0A3E0B50503B1
:101531007FFF22900139E0FF3395E0FEEF7802C38F
:1015410033CE33CED8F9FF248CF58274003EF58377
:10155100E4F0748D2FF58274003EF583E4F0A3F07E
:04156100A3F0FF22D2
:091A210090012B1218B47F002281
:081A2A0090013AEFF07F002269
:0A1A0D009000FE1218B4E4FEFF2260
:0A1A17009001061218B4E4FEFF224D
:0D19F400900001020424EF131313541F226E
:10073300EFD3940750091219F4FED3940340037FB7
:100743000122EF7035EE700812040BF452935294A9
:100753001219F4B4010812040B4293F452941219BF
:10076300F4FEB4020712040B42934294EEB4030A5C
:1007730012040BFEF45293EE4294EF6401703712AD
:1007830019F4FE700812040BF452915292EEB40164
:100793000812040B4291F452921219F4B402071294
:1007A300040B429142921219F4B4030A12040BFE91
:1007B300F45291EE4292EF640270371219F4FE7014
:1007C3000812040BF452955296EEB4010812040B6E
:1007D3004295F452961219F4B4020712040B42958F
:1007E30042961219F4B4030A12040BFEF45295EE66
:1007F3004296EF640370371219F4FE700812040B6B
:10080300F452B152B2EEB4010812040B42B1F452E5
:10081300B21219F4B4020712040B42B142B2121914
:10082300F4B4030A12040BFEF452B1EE42B2EF64C5
:100833000470371219F4FE700812040BF452B35209
:10084300B4EEB4010812040B42B3F452B41219F417
:10085300B4020712040B42B342B41219F4B4030AEC
:1008630012040BFEF452B3EE42B4EF640570371278
:1008730019F4FE700812040BF452C952CAEEB40103
:100883000812040B42C9F452CA1219F4B402071233
:10089300040B42C942CA1219F4B4030A12040BFE30
:1008A300F452C9EE42CAEF640670371219F4FE70AF
:1008B3000812040BF452CB52CCEEB4010812040B11
:1008C30042CBF452CC1219F4B4020712040B42CBFC
:1008D30042CC1219F4B4030A12040BFEF452CBEE09
:1008E30042CCEF640770371219F4FF700812040B3F
:1008F300F452E152E2EFB4010812040B42E1F45264
:10090300E21219F4B4020712040B42E142E2121993
:10091300F4B4030A12040BFFF452E1EF42E27F0046
:0109230022B1
:10156500EF5407FE900040F0E4900042F0A3F0ED48
:1015750014600C1460111460182403701480129008
:1015850000417401F08010E4900041F0A3EEF0807A
:10159500069000417403F01219FAFF7B017A007975
:0415A50040020733C6
:100D74001219FAFE7B01EF5407FFEBA80708800263
:100D8400C333D8FCFBEEB408004003020E18900DE8
:100D940099F8282873020DB1020DBE020DCB020D85
:100DA400D8020DE5020DF2020DFF020E0CED4C709F
:100DB40005EBF4528022EB428022ED4C7005EBF4FB
:100DC400529022EB429022ED4C7005EBF452A0229B
:100DD400EB42A022ED4C7005EBF452B022EB42B092
:100DE40022ED4C7005EBF452C022EB42C022ED4CD4
:100DF4007005EBF452C822EB42C822ED4C7005EBAF
:100E0400F452E822EB42E822ED4C7005EBF452F880
:040E140022EB42F893
:010E180022B7
:10107200E4FE1219FAFD7C01EF5407FFECA8070801
:101082008002C333D8FCFCEDB4080050689010967F
:10109200F82828730210AE0210B70210C00210C95D
:1010A2000210D20210DB0210E40210EDEC428000CA
:1010B20000AE80803DEC42900000AE908034EC4265
:1010C200A00000AEA0802BEC42B00000AEB08022A7
:1010D200EC42C00000AEC08019EC42E80000AEC88D
:1010E2008010EC42E80000AEE88007EC42F8000015
:0710F200AEF8EE5CFEAF0654
:0110F90022D4
:10115E004200F100004200F3000F4100F000440095
:09116E00EB000000004100EF0F4E
:081A3200E49000F1F0A3F022A2
:0519E600F0E0FF7E00AF
:0919EB009000F3EEF0A3EFF022EE
:061A41009000F0EFF0221E
:050F5500900040EFF0E8
:100F5A009000EBE0FCA3E0FDA3E0FEA3E02401FF88
:100F6A00E43EFEE43DFDE43CFC9000EB120662E444
:100F7A007F207E4EFDFC9000EBE0F8A3E0F9A3E0B1
:100F8A00FAA3E0FBD312060E400A9000EB12066E9B
:100F9A00000000009000F3E0FEA3E0FFD39000F20F
:100FAA00E09F9000F1E09E9000F0E0FF50067D0186
:100FBA007C008003E4FDFC1200989000F2E004F04B
:100FCA0070069000F1E004F0C39000F2E094C8903B
:0B0FDA0000F1E094004004E4F0A3F0FC
:010FE50022E9
:1016B40012040B2499601B24FC602A2405703190C9
:1016C40000EFE004F0E0C39419402274191219E603
:1016D400801B9000EFE014F0E0D3940550057405EE
:1016E4001219E680089000EF740F1219E6121A32EC
:0116F40022D3
:10179C00535443313546324B363053322055415237
:1017AC005420546573742050726772616D6D65209E
:0E17BC002D2D2D2D206462756732210D0A003F
:1016F500900052E0FBA3E0FAA3E0F922900055E048
:10170500FCA3E0FDA3E0FEA3E0FF22900055E0F876
:10171500A3E0F9A3E0FAA3E0FBC322F0A3F0A3F052
:0F172500A3F022EFF0A3EBF0A3EAF0A3E9F02288
:0609240090005212172B97
:10092A00EF64016003020AA89000C404F0E4A31271
:10093A001720A3F0A3F07F28784AE4F608DFFC7FAB
:10094A00287822E4F608DFFC1216F512040BD39479
:10095A00C040037F012290000A120424B40104D289
:10096A00BC8002C2BC12040BFFE598543F4FF598B5
:10097A00EF64C06008EF64406003020A329000022C
:10098A001206327F007E607D547C0012057C900046
:10099A0055120662E4FFFE7D01FC12171012060EC4
:1009AA0040037F0222121710E49BFFE49AFE7401AF
:1009BA0099FDE498FC9000551206621216F5900013
:1009CA0001120424FB6401702DC28E538EFE5389DA
:1009DA00BF5389CF438E40121701780812061F8F22
:1009EA008D900055A3A3A3E0F58BC2AB5389BF53E7
:1009FA008FFDD28E8063EB6402702A538EEF438E92
:100A0A0001538EF7438E04121701780812061F8FBE
:100A1A00D6900055A3A3A3E0F5D753AFFB538EF7A7
:100A2A00438E1080347F02221216F512040BFF70D7
:100A3A0013900008120424B40105438E20801A532F
:100A4A008EDF8015EFB48011900008120424B401DF
:100A5A0005438780800353877F1216F59000091299
:100A6A000424B40104D2AC8002C2AC900007120480
:100A7A0024B40104D29C8002C29C90000B1204246C
:100A8A0054C0FFE5A2543F4FF5A290000C12042473
:100A9A00B4010543971080035397EF7F00227F0329
:010AAA002229
:10185E009000C6E0244AF8A607E004F0C39428409E
:0E186E0002E4F09000C7E0700404F0D299226A
:1019590012040BFF600C12185E740129F9E43AFABB
:0319690080EE22EB
:061A4700AE0712185E223A
:030023000211784F
:10117800C0E0C083C082C0D075D000C000C006C027
:1011880007309824C2989000CAE0701C9000C8E00C
:10119800C394284002E4F09000C8E0FF04F07422F1
:1011A8002FF8A699A37405F0309927C2999000C624
:1011B800E0FF9000C5E0FE6F6013744A2EF8E6F574
:1011C80099E004F0C394284009E4F080059000C732
:1011D800E4F0D007D006D000D0D0D082D083D0E0C1
:0111E80032D4
:02144200AB07F6
:101444009000457440F0A37402F090004112170418
:1014540090004712066290004C7401F0E4A3F0A3DC
:1014640004F0E4A3F0EBB40105E4A3F08005E490F8
:101474000050F0E4900051F0AF037B017A0079450D
:0C1484001209247BFF7A17799C02195989
:060CC0009000DF1217286E
:100CC600E49000E71217209000E574FFF5F0120497
:100CD600F245F07003020D707F0112199E9000DF3D
:100CE600E0B401E39000C9E0D3940040DAE014F0E8
:100CF60070D59000C8E0D394004067E49000E9F016
:100D0600A3F09000C8E0FFC39000EAE09F9000E9DE
:100D1600E09400504D9000E7E475F0011204F2747F
:100D26002225F0F8E6FF12185E9000E3E0FEA3E04D
:100D3600FF9000E71217199FEA9E40169000C8E040
:100D4600FF9000E9A3E0FEEF9E9000C8F0AF03AE6F
:100D560002229000EAE004F070A89000E9E004F0B6
:0D0D660080A0E49000C8F0020CCDE4FEFF78
:010D7300225D
:0617340090010E121728BF
:10173A00E4FDFCD3900113E09D900112E09C401D52
:10174A0090010EE0B4010FA31216F88D828C831259
:10175A000424FF12185E0DBD00010C80D6AE04AF42
:01176A000579
:01176B00225B
:1018F800696E2054696D65315F496E742074747423
:0519080074200D0A002F
:10183D004EF58990000302042490000502050890DE
:10184D000002020424900004020424900007020404
:01185D002466
:03000B00020026CA
:10002600C0E0C0F0C083C082C0D075D000C000C0A0
:1000360001C002C003C004C005C006C007E4FF1229
:100046000E19D007D006D005D004D003D002D001B7
:0D005600D000D0D0D082D083D0F0D0E032E6
:03001B000214903C
:10149000C0E0C0F0C083C082C0D075D000C000C022
:1014A00001C002C003C004C005C006C00712193342
:1014B000EF700E7BFF7A1879F81201117F01120E7E
:1014C00019D007D006D005D004D003D002D001D067
:0C14D00000D0D0D082D083D0F0D0E03229
:030063000215A9DA
:1015A900C0E0C0F0C083C082C0D075D000C000C008
:1015B90001C002C003C004C005C006C00712193328
:1015C900EF70057F02120E19D007D006D005D0049E
:1015D900D003D002D001D000D0D0D082D083D0F0B7
:0315E900D0E0321D
:03009B000215EC5F
:1015EC00C0E0C0F0C083C082C0D075D000C000C0C5
:1015FC0001C002C003C004C005C006C007121933E5
:10160C00EF70057F03120E19D007D006D005D00459
:10161C00D003D002D001D000D0D0D082D083D0F073
:03162C00D0E032D9
:0300A30002162F13
:10162F00C0E0C0F0C083C082C0D075D000C000C081
:10163F0001C002C003C004C005C006C007121933A1
:10164F00EF70057F04120E19D007D006D005D00415
:10165F00D003D002D001D000D0D0D082D083D0F030
:03166F00D0E03296
:100AAB00AD07EDD3940240037F0522ED706EC28C2F
:100ABB0012184CB40104D2A98002C2A990000112F1
:100ACB000424B40104D2B98002C2B912040BFED3C0
:100ADB00940340037F0222E58954FC12183DFFB4B6
:100AEB000103538E7FEF7003438E80EFB4020543F7
:100AFB00890480035389FB121852B40105438F01FB
:100B0B008003538FFE121846E5F0F58C121846F54C
:100B1B008A121858B40102D28C7F0022ED64017046
:100B2B006EC28E12184CB40104D2AB8002C2AB90D1
:100B3B000001120424B40104D2BB8002C2BB120414
:100B4B000BFEC3940340037F0222E58954CF121896
:100B5B003DFFB40103538EBFEF7003438E40EFB4E0
:100B6B00020543894080035389BF121852B4010513
:100B7B00438F028003538FFD121846E5F0F58D125B
:100B8B001846F58B121858B40102D28E7F0022ED55
:100B9B006402705F538EEF12184CB4010543AF041F
:100BAB00800353AFFB121840FED3940240037F0225
:100BBB0022EEB40103538EFB1218407003438E04D4
:100BCB00121840B40205438E088003538EF7121897
:100BDB0052B40105438F048003538FFB121846FD5B
:100BEB00ACF0ECF5D68DD7121858B40103438E1028
:060BFB007F00227F0222B0
:0B176C00900046EFF0A3ECF0A3EDF0BE
:10177700E4A3F0A3F0A304F0E4A3F0A304F0A3749C
:10178700F7F0A3745DF0A37401F0FB7A007949E4E4
:04179700FF120AAB88
:01179B00222B
:0F199E007DA57C06ED1D70011C144C70F7DFF168
:0119AD002217
:03000000020FE606
:0C0FE600787FE4F6D8FD75817102102DB3
:10040B00BB010689828A83E0225002E722BBFE02EF
:09041B00E32289828A83E4932222
:10042400BB010CE58229F582E5833AF583E022508D
:1004340006E92582F8E622BBFE06E92582F8E222D7
:0D044400E58229F582E5833AF583E49322F1
:10045100BC000BBE0029EF8DF084FFADF022E4CC8F
:10046100F875F008EF2FFFEE33FEEC33FCEE9DEC58
:10047100984005FCEE9DFE0FD5F0E9E4CEFD22ED9E
:10048100F8F5F0EE8420D21CFEADF075F008EF2FE8
:10049100FFED33FD4007985006D5F0F222C398FDD9
:0504A1000FD5F0EA2276
:1004A600C2D5EC30E709B2D5E4C39DFDE49CFCEE71
:1004B60030E715B2D5E4C39FFFE49EFE120451C394
:1004C600E49DFDE49CFC800312045130D507C3E48F
:0604D6009FFFE49EFE22E0
:1004DC00C5F0F8A3E028F0C5F0F8E58215827002AB
:0604EC001583E038F02248
:1004F200A3F8E0C5F025F0F0E582158270021583BD
:06050200E0C838F0E82219
:10050800BB0110E58229F582E5833AF583E0F5F031
:10051800A3E0225009E92582F886F008E622BBFE0E
:100528000AE92582F8E2F5F008E222E5832AF58354
:08053800E993F5F0A3E9932219
:1005400075F008758200EF2FFFEE33FECD33CDCC72
:1005500033CCC58233C5829BED9AEC99E5829840F5
:100560000CF582EE9BFEED9AFDEC99FC0FD5F0D6D2
:10057000E4CEFBE4CDFAE4CCF9A88222B800C1B9FC
:100580000059BA002DEC8BF084CFCECDFCE5F0CB3A
:10059000F97818EF2FFFEE33FEED33FDEC33FCEB73
:1005A00033FB10D703994004EB99FB0FD8E5E4F92E
:1005B000FA227818EF2FFFEE33FEED33FDEC33FC1B
:1005C000C933C910D7059BE99A4007EC9BFCE99A0F
:1005D000F90FD8E0E4C9FAE4CCFB2275F010EF2F54
:1005E000FFEE33FEED33FDCC33CCC833C810D70754
:1005F0009BEC9AE899400AED9BFDEC9AFCE899F88F
:0E0600000FD5F0DAE4CDFBE4CCFAE4C8F92221
:10060E00EB9FF5F0EA9E42F0E99D42F0E89C45F042
:01061E0022B9
:10061F00E8600FECC313FCED13FDEE13FEEF13FFB9
:03062F00D8F122DD
:10063200BB010DE58229F582E5833AF5830206C402
:100642005007E92582F80206B7BBFE07E92582F8C2
:100652000206D0E58229F582E5833AF5830206DDBA
:0C066200ECF0A3EDF0A3EEF0A3EFF0220B
:10066E00A8828583F0D083D0821206851206851269
:10067E000685120685E473E493A3C583C5F0C5838E
:10068E00C8C582C8F0A3C583C5F0C583C8C582C8D6
:01069E002239
:06069F008A838982E473E6
:1000A600E5082408F582E43400F583E0050822908B
:1000B6000005300703900008E475F0011206ED0212
:1000C600040B2000E97F2ED2008018EF540F2490F5
:1000D600D43440D4FF30040BEF24BFB41A005003CD
:1000E6002461FFE50960021509050CE50C7002059F
:1000F6000B30070E900005E475F0011206EDEF02D5
:1001060006A5021A477403D2078003E4C207F5085E
:10011600900005120704E4F509F50BF50CE50960F6
:10012600077F201200E980F5750AFFC201C200C2EE
:1001360002C203C205C206C2081200B5FF700D3026
:1001460007057F001200FAAF0CAE0B22B4255FC282
:10015600D5C2041200B5FF24D0B40A00501A75F0B7
:100166000A780930D50508B6FF0106C6A426F6208A
:10017600D5047002D20380D924CFB41A00EF5004FC
:10018600C2E5D2040202FBD20180C6D20080C0D2F0
:100196000280BCD2D580BAD20580B47F201200E995
:1001A6002002077401B5090040F11200A6FF1200F3
:1001B600E9020123D208D20680951200A6FB12009E
:1001C600A6FA1200A6F94A4B700679CC7A037BFF91
:1001D60020022EE509602A7E008E827583001204B5
:1001E6002460060EEE650A70F0C2D5EBC0E0EAC0E8
:1001F600E0E9C0E0EE120342D0E0F9D0E0FAD0E048
:10020600FB12040BFF60AAEBC0E0EAC0E0E9C0E025
:100216001200E9D0E02401F9D0E03400FAD0E0FB86
:10022600E50A0460DCD50AD980877BFF7A03793E2C
:10023600D202809C791080027908C206C208800822
:10024600D2D5790A8004790AC2D5E50A047002F586
:100256000AE4FAFDFEFF1200A6FC7B082001131239
:1002660000A6FD7B1030000A1200A6FE1200A6FFB3
:100276007B20EC3382D592D55013C3E43000069F21
:10028600FFE49EFEE42001039DFDE49CFCE4CBF824
:10029600C201EC700CCFCECDCCE824F8F870F38018
:1002A60017C3EF33FFEE33FEED33FDEC33FCEB33D8
:1002B600FB994002FB0FD8E9EB300105F8D0E0C40A
:1002C60048B201C0E00AEC4D4E4F78207B0070C268
:1002D600EAB50A0040BCC0E0120344D0F0D0E020EA
:1002E6000104C4C0E0C4B201C0F01200D2D0F0D5FF
:1002F600F0EB02012312070D01C053023A58019197
:100306004C018D42023E4F02464402464901A64335
:08031600024C55023046023092
:10031E004502304703EC5001952D01992E01BC2B5F
:10032E00019D2301BA2003D52A015548000001B4CE
:10033E003F3F3F00790AA2D5200314300509B910BA
:10034E00020404B9080104A2D520060250010420BB
:10035E0002689202B509005034C0E07F20300319C4
:10036E007F30A20272067205500F12039BC202C2A8
:10037E0006C205C2087F30800F300503E9C0E012C7
:10038E0000E9300503D0E0F9D0E0B509CC3005170F
:10039E007F30B9100C1200E97F583004077F788047
:1003AE0003B908031200E93002057F2D0200E97F30
:1003BE00202008F87F2B2006F322920280CF286E91
:1003CE00756C6C2900D2011200A63001F8C20178BA
:1003DE000930D50108F60201552D50434958120037
:1003EE00A62403B405004001E49003E7931200DA5B
:0D03FE00743A1200DAD20375090402023AC3
:100FF2000212FCE493A3F8E493A34003F68001F207
:1010020008DFF48029E493A3F85407240CC8C333FF
:10101200C4540F4420C8834004F456800146F6DFCE
:10102200E4800B01020408102040809010FAE47E54
:10103200019360BCA3FF543F30E509541FFEE493C3
:10104200A360010ECF54C025E060A840B8E493A38A
:10105200FAE493A3F8E493A3C8C582C8CAC583CAB5
:10106200F0A3C8C582C8CAC583CADFE9DEE780BE6D
:011177000077
:1006A500BB010689828A83F0225002F722BBFE0134
:0206B500F3222E
:0D06B700E6FB08E6F908E6FA08E6CBF822B3
:0C06C400E0F8A3E0F9A3E0FAA3E0FB22B9
:0D06D000E2FB08E2F908E2FA08E2CBF822AA
:1006DD00E493F8740193F9740293FA740393FB2273
:1006ED00F8E0FBA3A3E0F925F0F0E5821582700296
:0706FD001583E0FA38F0223A
:09070400EBF0A3EAF0A3E9F022F6
:10070D00D083D082F8E4937012740193700DA3A37B
:10071D0093F8740193F5828883E47374029368608F
:06072D00EFA3A3A380DF8F
:00000001FF
