:0A1D65000000000000000000000074
:05001E007E00021B43FF
:10181C009001561203E90001C2007F011217371222
:10182C001861D2AF7F5A7E00121B43E4FD7F1C125D
:10183C001CD1E4FD7F1D121CD1E4FD7F1E121CD1B6
:10184C00E4FD7F1F121CD17D027F0A121CD17D0288
:05185C007F0B021CD10E
:1014E200E4900148F0A3F0784A7C017D017BFF7A09
:1014F2001D7965FE7F0A120176E4900154F01218FC
:101502001C7F5A12001E7FFA121D037F0A12009ED0
:10151200900148EFF07F0B12009E900149EFF0908E
:101522000148E02430FF121BCD7F2C121BCD90010D
:0F15320049E02430FF121BCD7F2C121BCD80C748
:101BAF009002257402F0900221741CF0A304F0A39C
:0E1BBF0004F0A304F07B017A027921020EE506
:0E1D13007D01E4FF1216E87D017F010216E853
:0E1D21007D02E4FF1216E87D027F010216E843
:0D000E00E4FDFF1216E8E4FD7F010216E894
:0E1D2F007D01E4FF1216E87D027F010216E836
:0E1D3D007D02E4FF1216E87D017F010216E828
:0C1D5900900226E0FBA3E0FAA3E0F922D0
:0B10EB00900226EBF0A3EAF0A3E9F06E
:1010F600E4A3F0A3F0EA494B70037FFF22121D59C7
:101106009000021201B5FEC36480948240037FFF03
:101116002290023EEEF0E4900229F0A3F0121D594F
:101126009000021201B5FF3395E0FEC390022AE05B
:101136009FEE6480F8900229E0648098503EE0FEBD
:10114600A3E0F5828E831201B5FF7D01121CD11238
:101156001D59A3E0FEA3E0FFF5828E831201B5FDC3
:10116600743C2FF58274023EF583EDF090022AE07E
:0E11760004F070A9900229E004F080A17F002F
:011184002248
:101CE300743C2FF582E43402F583E0FF12009E2258
:101B6B00900242E025E0242BF582E43402F583E079
:101B7B00FF22900230E0FBA3E0FAA3E0F99000040F
:031B8B000201B59F
:0B0EE500900230EBF0A3EAF0A3E9F06C
:100EF000E4A3F0EA494B70037FFF22121B7DFEC37F
:100F00006480948240037FFF2290022FEEF0E490F1
:100F10000233F0121B7DFF900233E0FEC3EF6480CA
:100F2000F8EE6480985056EEFF3395E0FEEF25E032
:100F3000FFEE33FE8F828E83120F802FF9EA3EFA86
:100F4000900001120F80F98F828E831201B5FD741B
:100F50002B2FF58274023EF583EDF0E92FF9EA3E7E
:100F6000FA9000011201B5FD742C2FF58274023E37
:0F0F7000F583EDF0900233E004F0020F137F00E1
:100F7F00221201B5FFE4FD121CD1900233E0FF33C2
:100F8F0095E0FEEF25E0FFEE33FE900230E0FBA38D
:050F9F00E0FAA3E022CE
:1016E800900242EFF0ED14600F14601B2402702783
:1016F800121B6BE4FDFC8007121B6B7D017C001242
:101708001722E4FDFC800D121B6BE4FDFC1217226E
:101718007D017C001200607F00221200609002426E
:0F172800E025E0242CF582E43402F583E0FF2273
:101CD100EDC3940050057EFF7FFF221215F1E4FE53
:021CE100FF22E0
:101B1B00900240ECF0A3EDF090023FEFF0E4FD12E9
:101B2B001CD1900240E07002A3E0700B90023FE0EA
:081B3B00FFE4FDFC1200602232
:03006000020FA4E8
:04009E001212A22276
:101C85004C4544206F6E0D0A004C4544206F666636
:031C95000D0A0035
:10132A004901DFFFFFFFFFFFFFFFFFFF4401DB0073
:03133A00000000B0
:101C3300E4FDFC9001DBE0F8A3E0F9A3E0FAA3E004
:051C4300FBD302038940
:071D9C007F0F7E00021D50C5
:041DAF00E4FEFF222D
:03009800021D50F6
:041DB300E4FEFF2229
:101B4300C3EE64809480401FD3EF94B4EE6480941A
:101B53008050147C007D09120237EF2405FDE43E1A
:071B6300FCFEAF05121D504E
:011B6A002258
:101C72009001DFE0FFE4FD121CD19001DF74FFF060
:031C82007F0022BE
:080003009001DFE0FF7E002206
:101CF3009001DFE0F47E0060047F0180027F002218
:05147F00900243EFF0B4
:101484009001DBE0FCA3E0FDA3E0FEA3E02401FF68
:10149400E43EFEE43DFDE43CFC9001DB1203DD7F11
:1014A400E87E03121C334010E4FDFC7F0812006048
:1014B4007BFF7A1C7985800F7D017C007F081200F8
:1014C400607BFF7A1C798E1205197FD07E07121C6F
:0D14D40033400A9001DB1203E90000000024
:0114E10022E8
:10154100A907121CF39001DFE9F0AF05A3ECF0A3AA
:10155100EFF0AF03A3EAF0A3EFF0900201E0FFA3E5
:10156100E09001E4CFF0A3EFF0900203E0FFA3E0ED
:101571009001E6CFF0A3EFF0AF017D03121CD190F3
:1015810001DFE0FF121DA37BFF7A1179857D017CCC
:0915910000E4FF1200667F002255
:10186100121CF39001DF740CF0A37402F0A3742036
:10187100F0A37409F0A37460F0E4A3F0A3F0A3F063
:10188100A374B4F09001DFE0FF7D03121CD190013D
:10189100DFE0FF121DA37BFF7A1179857D017C00BA
:0518A100E4FF020066F7
:10133D00410170004201A100006030017100000107
:10134D00000000000000000100000000000000018E
:10135D00000000000000000100000000000000017E
:0D136D000000000000000000000000000073
:1016980075F008A42472F582E43401F58322E0246D
:1016A80001FFE433FE7C007D060201E2EF75F008DD
:1016B800A42471F582E43401F5832275F008A4248A
:1016C80074F582E43401F5832275F008A42476F5D4
:1016D80082E43401F58322EBF0A3EAF0A3E9F022D7
:101C98009001A1E075F00684A3E0B5F0037F01226E
:031CA8007F002298
:101CAB009001A21216A69001A1E0B505037F0122B7
:031CBB007F002285
:05104900900143EFF0EF
:10104E009001A1E0900144F0A3E4F0A3F0A3F0120C
:10105E001C98EF60037FFF22900144E0FF75F006BD
:10106E00849001A2E0FD65F060701216B4E0FF906E
:10107E000143E06F705BA3E0FF121698E475F00178
:10108E0012026DED1216C3E0FCA3E0FDEF121698EE
:10109E00E0FEA3E0C39DEE9C4037900144E01216A3
:1010AE00D1E0FBA3E0FAA3E0F99001451216DF4A66
:1010BE006014900143E0FF900145A3E0FAA3E0F530
:1010CE00828A8312041E900144E0121698E4F0A363
:0C10DE00F0900144E004F00210667F0076
:0110EA0022E3
:0B159A0090015BEFF0A3ECF0A3EDF07C
:1015A500E4A3F0121CAB9001A2E0FF90015EF09065
:1015B500015BE0FE1216B4EEF090015CE0FEA3E0E4
:1015C500FF9001A2E0FD1216C3EEF0A3EFF0ED12BD
:1015D5001698E4F0A3F0ED1216D11216DFED1216EF
:0B15E500A79001A2EDF090015EE0FF76
:0115F00022D8
:1019B300AD07121C98EF60037FFF22EDFF3395E024
:1019C300FEEF7803C333CE33CED8F9FF2471F5820B
:1019D30074013EF583E4F074762FF58274013EF5CD
:1019E30083E4F0A3F0A3F09001A11216A6EDF07F1B
:0219F3000022D0
:10006600900156ECF0A3EDF0A31216DF900155EFC8
:10007600F07D017C00121AEB900155E0FFA3E0FC35
:10008600A3E0FDA3E0FBA3E0FAA3E0F912159A7F33
:02009600002246
:10002600900244EFF07006120000020000900244B5
:0B003600E0B4010612000012000022DE
:101C4800900245EFF07003020000900245E0B401F5
:051C5800031200002250
:10137A004201BD00024C01A3000000000000000071
:04138A00000000005F
:10004600EFF0A3EBF0A3EAF0A3E9F022E02401FF2E
:0A005600E433FE7C007D030201E2AA
:101647009002341200469001BE120052AE0590017E
:10165700BDE0B506037FFF229001BEEEF090023495
:10166700E0FFEE25E025E024A3F582E43401F583CD
:10167700EFF0900235E0FBA3E0FAA3E0F9EE25E0F6
:1016870025E024A4F582E43401F583120049AF066E
:011697002230
:1018A600900246EFF09001BD120052A3E0B5050389
:1018B6007FFF22900246E0FF3395E0FEEF7802C3F9
:1018C60033CE33CED8F9FF24A3F58274013EF583D7
:1018D600E4F074A42FF58274013EF583E4F0A3F0DE
:0418E600A3F0FF224A
:091D83009002381200467F002294
:081D8C00900247EFF07F0022F6
:0A1D6F00900205120046E4FEFF2278
:0A1D790090020D120046E4FEFF2266
:101BEB009000010201B5F09000030201B5900002D4
:0A1BFB000201B5EF131313541F226B
:10081300EFD394075009121BEBFED3940340037FDD
:10082300012243BA80EF7042EE700812019CF45229
:10083300935294121BEBB4010812019C4293F4529D
:1008430094121BEBFEB4020712019C42934294EEF6
:10085300B4030A12019CFEF45293EE4294121BF865
:1008630090FE10121BF190FE18F0EF640170441219
:100873001BEBFE700812019CF452915292EEB401EC
:100883000812019C4291F45292121BEBB40207121C
:10089300019C42914292121BEBB4030A12019CFE8B
:1008A300F45291EE4292121BF890FE11121BF1903A
:1008B300FE19F0EF64027044121BEBFE7008120184
:1008C3009CF452955296EEB4010812019C4295F4A1
:1008D3005296121BEBB4020712019C4295429612E8
:1008E3001BEBB4030A12019CFEF45295EE429612DE
:1008F3001BF890FE12121BF190FE1AF0EF640370C6
:1009030044121BEBFE700812019CF452B152B2EE7A
:10091300B4010812019C42B1F452B2121BEBB402AF
:100923000712019C42B142B2121BEBB4030A12013B
:100933009CFEF452B1EE42B2121BF890FE13121B4E
:10094300F190FE1BF0EF64047044121BEBFE700881
:1009530012019CF452B352B4EEB4010812019C424A
:10096300B3F452B4121BEBB4020712019C42B3421C
:10097300B4121BEBB4030A12019CFEF452B3EE4211
:10098300B4121BF890FE14121BF190FE1CF0EF64DE
:10099300057044121BEBFE700812019CF452C952FD
:1009A300CAEEB4010812019C42C9F452CA121BEBED
:1009B300B4020712019C42C942CA121BEBB4030AD8
:1009C30012019CFEF452C9EE42CA121BF890FE15A6
:1009D300121BF190FE1DF0EF64067044121BEBFE38
:1009E300700812019CF452CB52CCEEB401081201F0
:1009F3009C42CBF452CC121BEBB4020712019C4273
:100A0300CB42CC121BEBB4030A12019CFEF452CB73
:100A1300EE42CC121BF890FE16121BF190FE1EF054
:100A2300EF64077044121BEBFF700812019CF45231
:100A3300E152E2EFB4010812019C42E1F452E212E6
:100A43001BEBB4020712019C42E142E2121BEBB41E
:100A5300030A12019CFFF452E1EF42E2121BF890E9
:0F0A6300FE17121BF190FE1FF053BA7F7F002287
:0215F100AC0745
:1015F300EF5407FF7401A807088002C333D8FCFC2B
:10160300900155F0E4900157F0A3F0ED14600C1431
:10161300601114601A24037016801490015674012B
:10162300F08012E4900156F0EC5407A3F08006908A
:1016330001567403F0AF04121BFEFF7B017A01799C
:041643005502081331
:100FA400121BFEFE7B01EF5407FFEBA8070880022B
:100FB400C333D8FCFBEEB408004003021048900F82
:100FC400C9F8282873020FE1020FEE020FFB02108A
:100FD4000802101502102202102F02103CED4C7072
:100FE40005EBF4528022EB428022ED4C7005EBF4C9
:100FF400529022EB429022ED4C7005EBF452A02269
:10100400EB42A022ED4C7005EBF452B022EB42B05F
:1010140022ED4C7005EBF452C022EB42C022ED4CA1
:101024007005EBF452C822EB42C822ED4C7005EB7C
:10103400F452E822EB42E822ED4C7005EBF452F84E
:0410440022EB42F861
:011048002285
:1012A200E4FE121BFEFD7C01EF5407FFECA80708C9
:1012B2008002C333D8FCFCEDB4080050689012C61B
:1012C200F82828730212DE0212E70212F00212F963
:1012D20002130202130B02131402131DEC428000CC
:1012E20000AE80803DEC42900000AE908034EC4233
:1012F200A00000AEA0802BEC42B00000AEB0802275
:10130200EC42C00000AEC08019EC42E80000AEC85A
:101312008010EC42E80000AEE88007EC42F80000E2
:07132200AEF8EE5CFEAF0621
:0113290022A1
:10138E004201EE00004201F0000F4101ED00440168
:09139E00E8000000004101EC0F21
:081D9400E49001EEF0A3F0223F
:051D4B00F0E0FF7E0046
:091D50009001F0EEF0A3EFF02287
:061DA3009001EDEFF022BB
:05118500900155EFF0A0
:10118A009001E8E0FCA3E0FDA3E0FEA3E02401FF58
:10119A00E43EFEE43DFDE43CFC9001E81203DDE49C
:1011AA007F207E4EFDFC9001E8E0F8A3E0F9A3E081
:1011BA00FAA3E0FBD3120389400A9001E81203E97B
:1011CA00000000009001F0E0FEA3E0FFD39001EFE1
:1011DA00E09F9001EEE09E9001EDE0FF50067D0158
:1011EA007C008003E4FDFC1200609001EFE004F053
:1011FA0070069001EEE004F0C39001EFE094C8900D
:0B120A0001EEE094004004E4F0A3F0CB
:0112150022B6
:1019F50012019C2499601B24FC602A2405703190F7
:101A050001ECE004F0E0C3941940227419121D4B57
:101A1500801B9001ECE014F0E0D3940550057405AB
:101A2500121D4B80089001EC740F121D4B121D9472
:011A3500228E
:100DEB0090016CE0F8A3E0F9A3E0FAA3E0FBC3E405
:100DFB009BFFE49AFE740199FDE498FC90016C1240
:100E0B0003DD900168E0FBA3E0FAA3E0F922C28EB8
:100E1B00538EFE5389BF5389CF438E4090016CE0B4
:100E2B00FCA3E0FDA3E0FEA3E0FF780802039A9089
:100E3B0000021203AD7F807E8D7D5B7C001202F77A
:100E4B0090016C1203DDE4FFFE7D01FC90016CE070
:100E5B00F8A3E0F9A3E0FAA3E0FB22F0E4A3F0A3EC
:100E6B00F0A3F0A3F0A3F0A3F0228F8D90016CA35D
:100E7B00A3A3E0F58BC2AB5389BF538FFDD28E2258
:100E8B008FD690016CA3A3A3E0F5D753AFFB538E82
:100E9B00F7438E1022EFF0A3EBF0A3EAF0A3E9F0F7
:100EAB0022538EEF438E01538EF7438E0422900113
:100EBB006BE0FFC3229000080201B5F583E4F090CC
:100ECB00016BE004F0229000011201B5FB640122DA
:0A0EDB0090000B1201B554C0FF2275
:0B0A7200900168120EA3900167EFF0E6
:100A7D0064016003020B8390000004120E66900166
:100A8D006BF0120EB99428500B744A2FF8E4F6E06F
:100A9D0004F080EEE490016BF0120EB99428500B27
:100AAD0074222FF8E4F6E004F080EE120E0D120120
:100ABD009CD394C040037F012290000A1201B5B46B
:100ACD000104D2BC8002C2BC12019CFFE598543FC8
:100ADD004FF598EF64C06005EF6440702F120E3A29
:100AED00C312038940037F0222120DEB120ED17047
:100AFD0008120E19120E75803EEB6402700B120E69
:100B0D00AC120E27120E8B802E7F0222120E0D12AA
:100B1D00019CFF7010120EC0B40105438E2080178A
:100B2D00538EDF8012EFB4800E120EC0B401054358
:100B3D008780800353877F120E0D9000091201B537
:100B4D00B40104D2AC8002C2AC9000071201B5B45E
:100B5D000104D29C8002C29C120EDBE5A2543F4FD1
:100B6D00F5A290000C1201B5B40105439710800356
:100B7D005397EF7F0022900167E064026003020C3F
:100B8D00929000077402120E6690016BF0120EB96E
:100B9D009480500D748E2FF582E43400120EC680B1
:100BAD00ECE490016BF0120EB99480500D740E2F81
:100BBD00F582E43400120EC680EC120E0D12019C6B
:100BCD00D394C040037F012290000A1201B5B401F5
:100BDD0004D2BC8002C2BC12019CFFE59A543F4F67
:100BED00F59AEF64C06005EF6440702F120E3AC3A2
:100BFD0012038940037F0222120DEB120ED17008F1
:100C0D00120E19120E75803EEB6402700B120EACB3
:100C1D00120E27120E8B802E7F0222120E0D120144
:100C2D009CFF7010120EC0B40105438E2080175327
:100C3D008EDF8012EFB4800E120EC0B40105438713
:100C4D0080800353877F120E0D9000091201B5B4F9
:100C5D000104D2AC8002C2AC9000071201B5B40100
:100C6D0004D29C8002C29C120EDBE5BA543F4FF5B4
:100C7D00BA90000C1201B5B40105439710800353CF
:070C8D0097EF7F00227F03B7
:010C9400223D
:101BCD00900002E0244AF8A607E004F0C3942840F0
:0E1BDD0002E4F0900003E0700404F0D29922BC
:101CBE0012019CFF600C121BCD740129F9E43AFA53
:031CCE0080EE2283
:101C0500AD07AC06538EEF120EB2ECF5D6AF058FCD
:081C1500D753AFFB438E1022F0
:101419009002151203DD900215120E5A7F807E8DFF
:101429007D5B7C001202F7C3E49FFFE49EFE74011A
:101439009DFDE49CFC9002151203DD900219E090D9
:101449000215A3A3E0FEA3E0FF121C05539A7F43F4
:10145900AF01439A1090021AE0B4010B43BA015349
:10146900B37F43B480800953BAFE5391FD4392027E
:06147900E490010FF022D7
:101C1D0012019C6010D209F59B2009FD740129F970
:061C2D00E43AFA80EB220C
:061DA900AE07121BCD2263
:030023000213A81D
:1013A800C0E0C083C082C0D075D000C000C006C0F5
:1013B80007309824C298900006E0701C900004E062
:1013C800C394284002E4F0900004E0FF04F0742283
:1013D8002FF8A699A37405F0309927C299900002B6
:1013E800E0FF900001E0FE6F6013744A2EF8E6F506
:1013F80099E004F0C394284009E4F08005900003C4
:10140800E4F0D007D006D000D0D0D082D083D0E08E
:0114180032A1
:03004300021A3668
:101A3600C0E0C083C082C0D0E59A30E020539AFE51
:101A460090010FE0240EF582E43400F583E59BF067
:101A560090010FE004F0C394804002E4F0E59A3070
:101A6600E105539AFDC209D0D0D082D083D0E032AE
:02173700AB07FE
:1017390090015A7440F0A37402F0900156E0FCA3A2
:10174900E0FDA3E0FEA3E0FF90015C1203DD900140
:10175900617401F0E4A3F0A304F0E4A3F0EBB40195
:1017690005E4A3F08005E4900165F0E4900166F0DA
:0B177900AF037B017A01795A020A726B
:061784009001F2120EA01C
:10178A00E49001FAF0A3F0FDFC900005E0D3940088
:10179A004030E014F0702B900004E0D39400401D18
:1017AA00900004E0FFC3ED9FEC9400501074222DCA
:1017BA00F8E6FF121BCD0DBD00010C80E3E490009A
:0517CA0004F0E4FEFF45
:0117CF0022F7
:061AB30090021B120EA0C0
:101AB900E4FDFCD3900220E09D90021FE09C401DB4
:101AC90090021BE0B4010FA3120E108D828C8312B9
:101AD90001B5FF121BCD0DBD00010C80D6AE04AFC0
:011AE90005F7
:011AEA0022D9
:101C5D00696E2054696D65315F496E7420747474BA
:051C6D0074200D0A00C7
:101B8E004EF5899000030201B59000050202839084
:101B9E0000020201B59000040201B5900007020197
:011BAE00B581
:03000B00021A7660
:101A7600C0E0C0F0C083C082C0D075D000C000C036
:101A860001C002C003C004C005C006C007E4FF12BF
:101A96001185D007D006D005D004D003D002D001DE
:0D1AA600D000D0D0D082D083D0F0D0E0327C
:03001B000217D0F9
:1017D000C0E0C0F0C083C082C0D075D000C000C0DF
:1017E00001C002C003C004C005C006C007121C9897
:1017F000EF700E7BFF7A1C795D1205197F011210C4
:1018000049D007D006D005D004D003D002D001D0F3
:0C18100000D0D0D082D083D0F0D0E032E5
:030063000218EA96
:1018EA00C0E0C0F0C083C082C0D075D000C000C0C4
:1018FA0001C002C003C004C005C006C007121C987C
:10190A00EF70057F02121049D007D006D005D00427
:10191A00D003D002D001D000D0D0D082D083D0F072
:03192A00D0E032D8
:03009B0002192D1A
:10192D00C0E0C0F0C083C082C0D075D000C000C080
:10193D0001C002C003C004C005C006C007121C9838
:10194D00EF70057F03121049D007D006D005D004E3
:10195D00D003D002D001D000D0D0D082D083D0F02F
:03196D00D0E03295
:0300A300021970CF
:10197000C0E0C0F0C083C082C0D075D000C000C03D
:1019800001C002C003C004C005C006C007121C98F5
:10199000EF70057F04121049D007D006D005D0049F
:1019A000D003D002D001D000D0D0D082D083D0F0EC
:0319B000D0E03252
:100C9500AD07EDD3940240037F0522ED706EC28C43
:100CA500121B9DB40104D2A98002C2A990000112B1
:100CB50001B5B40104D2B98002C2B912019CFED3B8
:100CC500940340037F0222E58954FC121B8EFFB476
:100CD5000103538E7FEF7003438E80EFB40205430B
:100CE500890480035389FB121BA3B40105438F01BB
:100CF5008003538FFE121B97E5F0F58C121B97F5B9
:100D05008A121BA9B40102D28C7F0022ED64017006
:100D15006EC28E121B9DB40104D2AB8002C2AB9091
:100D250000011201B5B40104D2BB8002C2BB12019D
:100D35009CFEC3940340037F0222E58954CF121B16
:100D45008EFFB40103538EBFEF7003438E40EFB4A3
:100D5500020543894080035389BF121BA3B40105D3
:100D6500438F028003538FFD121B97E5F0F58D121B
:100D75001B97F58B121BA9B40102D28E7F0022EDC1
:100D85006402705F538EEF121B9DB4010543AF04DF
:100D9500800353AFFB121B91FED3940240037F02E5
:100DA50022EEB40103538EFB121B917003438E0494
:100DB500121B91B40205438E088003538EF7121B54
:100DC500A3B40105438F048003538FFB121B97FDCA
:100DD500ACF0ECF5D68DD7121BA9B40103438E10E8
:060DE5007F00227F0222C4
:0B1AEB0090015BEFF0A3ECF0A3EDF026
:101AF600E4A3F0A3F0A304F0E4A3F0A304F0A3741A
:101B0600F6F0A374A0F0A37401F0FB7A01795EE409
:041B1600FF120C9519
:011B1A0022A8
:0F1D03007D607C09ED1D70011C144C70F7DFF141
:011D120022AE
:03000000021216D3
:0C121600787FE4F6D8FD75817102125D4E
:1000A600E709F608DFFA8046E709F208DFFA803E3C
:1000B60088828C83E709F0A3DFFA8032E309F60829
:1000C600DFFA8078E309F208DFFA807088828C8391
:1000D600E309F0A3DFFA806489828A83E0A3F60845
:1000E600DFFA805889828A83E0A3F208DFFA804C1F
:1000F60080D280FA80C680D4806980F280338010F6
:1001060080A680EA809A80A880DA80E280CA80335E
:1001160089828A83ECFAE493A3C8C582C8CCC583D6
:10012600CCF0A3C8C582C8CCC583CCDFE9DEE780A6
:100136000D89828A83E493A3F608DFF9ECFAA9F025
:10014600EDFB2289828A83ECFAE0A3C8C582C8CC7B
:10015600C583CCF0A3C8C582C8CCC583CCDFEADE94
:10016600E880DB89828A83E493A3F208DFF980CCF6
:1001760088F0EF60010E4E60C388F0ED2402B404EF
:100186000050B9F582EB2402B4040050AF23234596
:0601960082239000F673C5
:10019C00BB010689828A83E0225002E722BBFE0261
:0901AC00E32289828A83E4932294
:1001B500BB010CE58229F582E5833AF583E02250FF
:1001C50006E92582F8E622BBFE06E92582F8E22249
:0D01D500E58229F582E5833AF583E4932263
:1001E200BC000BBE0029EF8DF084FFADF022E4CC01
:1001F200F875F008EF2FFFEE33FEEC33FCEE9DECCA
:10020200984005FCEE9DFE0FD5F0E9E4CEFD22ED0F
:10021200F8F5F0EE8420D21CFEADF075F008EF2F59
:10022200FFED33FD4007985006D5F0F222C398FD4A
:050232000FD5F0EA22E7
:10023700C2D5EC30E709B2D5E4C39DFDE49CFCEEE2
:1002470030E715B2D5E4C39FFFE49EFE1201E2C377
:10025700E49DFDE49CFC80031201E230D507C3E472
:060267009FFFE49EFE2251
:10026D00C5F0F8A3E028F0C5F0F8E582158270021C
:06027D001583E038F022B9
:10028300BB0110E58229F582E5833AF583E0F5F0B9
:10029300A3E0225009E92582F886F008E622BBFE96
:1002A3000AE92582F8E2F5F008E222E5832AF583DC
:0802B300E993F5F0A3E99322A1
:1002BB0075F008758200EF2FFFEE33FECD33CDCCFA
:1002CB0033CCC58233C5829BED9AEC99E58298407D
:1002DB000CF582EE9BFEED9AFDEC99FC0FD5F0D65A
:1002EB00E4CEFBE4CDFAE4CCF9A88222B800C1B984
:1002FB000059BA002DEC8BF084CFCECDFCE5F0CBC2
:10030B00F97818EF2FFFEE33FEED33FDEC33FCEBFA
:10031B0033FB10D703994004EB99FB0FD8E5E4F9B5
:10032B00FA227818EF2FFFEE33FEED33FDEC33FCA2
:10033B00C933C910D7059BE99A4007EC9BFCE99A96
:10034B00F90FD8E0E4C9FAE4CCFB2275F010EF2FDB
:10035B00FFEE33FEED33FDCC33CCC833C810D707DB
:10036B009BEC9AE899400AED9BFDEC9AFCE899F816
:0E037B000FD5F0DAE4CDFBE4CCFAE4C8F922A9
:10038900EB9FF5F0EA9E42F0E99D42F0E89C45F0CA
:010399002241
:10039A00E8600FECC313FCED13FDEE13FEEF13FF41
:0303AA00D8F12265
:1003AD00BB010DE58229F582E5833AF58302043F11
:1003BD005007E92582F8020432BBFE07E92582F8D1
:1003CD0002044BE58229F582E5833AF58302045850
:0C03DD00ECF0A3EDF0A3EEF0A3EFF02293
:1003E900A8828583F0D083D08212040012040012FF
:1003F9000400120400E473E493A3C583C5F0C58324
:10040900C8C582C8F0A3C583C5F0C583C8C582C85D
:0104190022C0
:06041A008A838982E4736D
:1004AE00E5082414F582E43401F583E00508229072
:1004BE000111300703900114E475F0011204680273
:1004CE00019C2000E97F2ED2008018EF540F24905B
:1004DE00D43440D4FF30040BEF24BFB41A005003C1
:1004EE002461FFE50960021509050CE50C70020593
:1004FE000B30070E900111E475F001120468EF0243
:10050E000420021DA97403D2078003E4C207F50874
:10051E0090011112047FE4F509F50BF50CE5096065
:10052E00077F201204F180F5750AFFC201C200C2D6
:10053E0002C203C205C206C2081204BDFF700D300E
:10054E0007057F00120502AF0CAE0B22B4255FC269
:10055E00D5C2041204BDFF24D0B40A00501A75F09F
:10056E000A780930D50508B6FF0106C6A426F6207E
:10057E00D5047002D20380D924CFB41A00EF5004F0
:10058E00C2E5D204020703D20180C6D20080C0D2D7
:10059E000280BCD2D580BAD20580B47F201204F17D
:1005AE002002077401B5090040F11204AEFF1204D7
:1005BE00F102052BD208D20680951204AEFB12046E
:1005CE00AEFA1204AEF94A4B700679D47A077BFF65
:1005DE0020022EE509602A7E008E827583001201AC
:1005EE00B560060EEE650A70F0C2D5EBC0E0EAC04B
:1005FE00E0E9C0E0EE12074AD0E0F9D0E0FAD0E030
:10060E00FB12019CFF60AAEBC0E0EAC0E0E9C0E08B
:10061E001204F1D0E02401F9D0E03400FAD0E0FB6E
:10062E00E50A0460DCD50AD980877BFF7A07794614
:10063E00D202809C791080027908C206C208800816
:10064E00D2D5790A8004790AC2D5E50A047002F57A
:10065E000AE4FAFDFEFF1204AEFC7B082001131221
:10066E0004AEFD7B1030000A1204AEFE1204AEFF83
:10067E007B20EC3382D592D55013C3E43000069F15
:10068E00FFE49EFEE42001039DFDE49CFCE4CBF818
:10069E00C201EC700CCFCECDCCE824F8F870F3800C
:1006AE0017C3EF33FFEE33FEED33FDEC33FCEB33CC
:1006BE00FB994002FB0FD8E9EB300105F8D0E0C4FE
:1006CE0048B201C0E00AEC4D4E4F78207B0070C25C
:1006DE00EAB50A0040BCC0E012074CD0F0D0E020D2
:1006EE000104C4C0E0C4B201C0F01204DAD0F0D5E7
:1006FE00F0EB02052B12048805C8530642580599E3
:10070E004C05954206464F064E44064E4905AE43ED
:08071E00065455063846063862
:100726004506384707F450059D2D05A12E05C42B17
:1007360005A52305C22007DD2A055D48000005BC86
:100746003F3F3F00790AA2D5200314300509B910AE
:10075600020404B9080104A2D520060250010420AF
:1007660002689202B509005034C0E07F20300319B8
:100776007F30A20272067205500F1207A3C202C290
:1007860006C205C2087F30800F300503E9C0E012BB
:1007960004F1300503D0E0F9D0E0B509CC300517F7
:1007A6007F30B9100C1204F17F583004077F78802F
:1007B60003B908031204F13002057F2D0204F17F0C
:1007C600202008F87F2B2006F322920280CF286E85
:1007D600756C6C2900D2011204AE3001F8C20178A2
:1007E6000930D50108F602055D2D5043495812041B
:1007F600AE2403B405004001E49007EF931204E22F
:0D080600743A1204E2D2037509040206429E
:101222000214E2E493A3F8E493A34003F68001F2EC
:1012320008DFF48029E493A3F85407240CC8C333CD
:10124200C4540F4420C8834004F456800146F6DF9C
:10125200E4800B010204081020408090132AE47EEF
:10126200019360BCA3FF543F30E509541FFEE49391
:10127200A360010ECF54C025E060A840B8E493A358
:10128200FAE493A3F8E493A3C8C582C8CAC583CA83
:10129200F0A3C8C582C8CAC583CADFE9DEE780BE3B
:0113A7000045
:10042000BB010689828A83F0225002F722BBFE01BB
:02043000F322B5
:0D043200E6FB08E6F908E6FA08E6CBF8223A
:0C043F00E0F8A3E0F9A3E0FAA3E0FB2240
:0D044B00E2FB08E2F908E2FA08E2CBF82231
:10045800E493F8740193F9740293FA740393FB22FA
:10046800F8E0FBA3A3E0F925F0F0E582158270021D
:070478001583E0FA38F022C1
:09047F00EBF0A3EAF0A3E9F0227E
:10048800D083D082F8E4937012740193700DA3A303
:1004980093F8740193F5828883E473740293686017
:0604A800EFA3A3A380DF17
:00000001FF
