:10002600E4FD7F01120DC3E4FD7F02120DC3E4FD62
:100036007F03120DC3E4FD7F04120DC37D017F050E
:10004600120DC37D017F06120DC37F0512001E7FB0
:060056000612001E80F4FA
:100D26009000737402F090006F14F0A304F0A30413
:0D0D3600F0A304F07B017A00796F020385C1
:0E0DFF007D01E4FF1207917D017F0102079143
:0E0E0D007D02E4FF1207917D027F0102079132
:0D000E00E4FDFF120791E4FD7F0102079160
:0E0E1B007D01E4FF1207917D027F0102079125
:0E0E29007D02E4FF1207917D017F0102079117
:0B047F00900074EBF0A3EAF0A3E9F09A
:10048A00E4A3F0A3F0EA494B70037FFF22900074C3
:10049A00E0FBA3E0FAA3E0F99000021205F2FEC322
:1004AA006480948240037FFF22900090EEF0E490F3
:1004BA000077F0A3F0900074E0FBA3E0FAA3E0F960
:1004CA009000021205F2FF3395E0FEC3900078E037
:1004DA009FEE6480F8900077E06480985046E0FED2
:1004EA00A3E0F5828E831205F2FF7D01120DC390FF
:1004FA000074E0FBA3E0FAA3E0F9A3E0FEA3E0FFA7
:10050A00F5828E831205F2FD748E2FF58274003EF9
:10051A00F583EDF0900078E004F07099900077E0B0
:06052A0004F080917F0047
:0105300022A8
:100DA300748E2FF582E43400F583E0FF12001E22D7
:0B03850090007EEBF0A3EAF0A3E9F08B
:10039000E4A3F0EA494B70037FFF2290007EE0FB6C
:1003A000A3E0FAA3E0F99000041205F2FEC3648012
:1003B000948240037FFF2290007DEEF0E490008164
:1003C000F090007EE0FBA3E0FAA3E0F990000412B5
:1003D00005F2FF900081E0FEC3EF6480F8EE6480D8
:1003E00098400302047CEEFF3395E0FEEF25E0FF2A
:1003F000EE33FE8F828E831205F2FFE4FD120DC3F1
:10040000900081E0FF3395E0FEEF25E0FFEE33FE44
:1004100090007EE0FBA3E0FAA3E02FF9EA3EFA9019
:1004200000011205F2FFE4FD120DC3900081E0FF10
:100430003395E0FEEF25E0FFEE33FE90007EE0FB1B
:10044000A3E0FAA3E0F98F828E831205F2FD74799E
:100450002FF58274003EF583EDF0E92FF9EA3EFABC
:100460009000011205F2FD747A2FF58274003EF5BA
:0E04700083EDF0900081E004F00203C17F00F4
:01047E00225B
:10079100900096EFF0ED14601D1460482402707310
:1007A100900096E025E02479F582E43400F583E0B9
:1007B100FFE4FDFC8015900096E025E02479F582A8
:1007C100E43400F583E0FF7D017C00120E609000AF
:1007D10096E025E0247AF582E43400F583E0FFE435
:1007E100FDFC802C900096E025E02479F582E4342C
:1007F10000F583E0FFE4FDFC120E60900096E02519
:10080100E0247AF582E43400F583E0FF7D017C0089
:06081100120E607F0022C0
:0F0DC300EDC3940050057EFF7FFF22120A8B22A2
:10006600900092ECF0A3EDF0900091EFF0E4FD1219
:100076000DC3900092E07002A3E0700B900091E037
:08008600FFE4FDFC120E6022F4
:030E600002053157
:04001E00120706229D
:030E630002000387
:04009700E4FEFF2262
:030E6600020E3C3D
:04009E00E4FEFF225B
:09008E00900094EEF0A3EFF022C3
:100D7800900045A3E0FFE4FD120DC374FF90004509
:060D8800F0A3F07F002241
:090E4500900045E0FEA3E0FF224D
:100D8E00900045E0F47003A3E0F47E0060047F0160
:050D9E0080027F00222D
:10094C00A907120D8EEF4E60037F0022E9FF900085
:10095C0045E4F0A3EFF0AF05A3ECF0A3EFF0AF0389
:10096C00A3EAF0A3EFF0900054E0FFA3E090004B5B
:10097C00CFF0A3EFF0900056E0FFA3E090004DCF36
:10098C00F0A3EFF0AF017D03120DC37BFF7A0A7960
:09099C003FE4FF1208E97F00228C
:100C2100120D8EEF4E703A900045E4F0A37407F078
:100C3100A37402F0A37420F0A37409F0A37460F00C
:100C4100E4A3F0A3F0A3F0A374B4F0900045A3E0F3
:100C5100FF7D03120DC37BFF7A0A793FE4FF12087F
:020C6100E92286
:1009F30041001C00420035000558001D00000000A6
:100A030000000000000000000000000000000000E3
:040A130000000000DF
:100D4300900035E02401FFE433FE7C007D061206AB
:0C0D53001FA3E0B505037F01227F0022F2
:100D0800900036E02401FFE433FE7C007D061206E5
:0E0D18001F900035E0B505037F01227F002209
:0508170090003FEFF02E
:10081C00900035E0900040F0120D43EF60037FFF35
:10082C0022900040E0FB2401FFE433FE7C007D06B7
:10083C0012061F900036E06D6037EB25E025E024B2
:10084C001DF582E43400F583E0FF90003FE0B5072E
:10085C0018A3E025E025E0241EF582E43400F5839E
:10086C00A3E0FAA3E0F9120674900040E004F080D3
:03087C00B07F004A
:01087F002256
:1008E900900082EFF0A3EBF0A3EAF0A3E9F0120D78
:1008F90008EF60037FFF22900036E02401FFE43314
:10090900FE7C007D0612061FAF05EFF0900082E025
:10091900FEEF25E025E0241DF582E43400F583EEA1
:10092900F0900083E0FBA3E0FAA3E0F9EF25E025CE
:10093900E0241EF582E43400F583EBF0A3EAF0A38A
:03094900E9F022B0
:100CA400900097EFF0120D43EF60037FFF22900056
:100CB40097E0FF3395E0FEEF7802C333CE33CED80E
:100CC400F9FF241DF58274003EF583E4F0741E2FB1
:0E0CD400F58274003EF583E4F0A3F0A3F02255
:100A170042001A00024C0000000000000000000025
:040A270000000000CB
:10088000900086EFF0A3EBF0A3EAF0A3E9F090006C
:100890001BE02401FFE433FE7C007D0312061FAE43
:1008A0000590001AE0B506037FFF2290001BEEF0D2
:1008B000900086E0FFEE25E025E02400F582E43498
:1008C00000F583EFF0900087E0FBA3E0FAA3E0F9E6
:1008D000EE25E025E02401F582E43400F583EBF019
:0908E000A3EAF0A3E9F0AF06223F
:1009A500900098EFF090001AE02401FFE433FE7CFC
:1009B500007D0312061FA3E0B505037FFF2290000B
:1009C50098E0FF3395E0FEEF7802C333CE33CED8FF
:1009D500F9FF2400F58274003EF583E4F074012FDD
:0E09E500F58274003EF583E4F0A3F0A3F02247
:0F0DD20090008AEFF0A3EBF0A3EAF0A3E9F02280
:06005C00900099EFF02274
:0F0DE100900058EFF0A3EBF0A3EAF0A3E9F022A3
:0F0DF000900060EFF0A3EBF0A3EAF0A3E9F0228C
:1000A600EFD39407500C9000011205F2FED394038F
:1000B60040037F012243BA80EF704FEE70081205AD
:1000C600D9F4529352949000011205F2B401081229
:1000D60005D94293F452949000011205F2FEB4023F
:1000E600071205D942934294EEB4030A1205D9FECB
:1000F600F45293EE42949000021205F290FE10F034
:100106009000031205F290FE18F0EF64017054900F
:1001160000011205F2FE70081205D9F452915292AE
:10012600EEB401081205D94291F4529290000112E0
:1001360005F2B402071205D94291429290000112CB
:1001460005F2B4030A1205D9FEF45291EE429290DA
:1001560000021205F290FE11F09000031205F290D3
:10016600FE19F0EF640270549000011205F2FE7061
:10017600081205D9F452955296EEB401081205D923
:100186004295F452969000011205F2B40207120548
:10019600D9429542969000011205F2B4030A12055F
:1001A600D9FEF45295EE42969000021205F290FEA8
:1001B60012F09000031205F290FE1AF0EF6403703D
:1001C600549000011205F2FE70081205D9F452B1DE
:1001D60052B2EEB401081205D942B1F452B29000FF
:1001E600011205F2B402071205D942B142B29000DB
:1001F600011205F2B4030A1205D9FEF452B1EE4219
:10020600B29000021205F290FE13F0900003120560
:10021600F290FE1BF0EF640470549000011205F298
:10022600FE70081205D9F452B352B4EEB4010812A6
:1002360005D942B3F452B49000011205F2B4020794
:100246001205D942B342B49000011205F2B4030A72
:100256001205D9FEF452B3EE42B49000021205F232
:1002660090FE14F09000031205F290FE1CF0EF646D
:100276000570549000011205F2FE70081205D9F4BB
:1002860052C952CAEEB401081205D942C9F452CA7B
:100296009000011205F2B402071205D942C942CAFA
:1002A6009000011205F2B4030A1205D9FEF452C9F0
:1002B600EE42CA9000021205F290FE15F09000037D
:1002C6001205F290FE1DF0EF6406705490000112C4
:1002D60005F2FE70081205D9F452CB52CCEEB401E9
:1002E600081205D942CBF452CC9000011205F2B4A3
:1002F60002071205D942CB42CC9000011205F2B496
:10030600030A1205D9FEF452CBEE42CC900002123B
:1003160005F290FE16F09000031205F290FE1EF014
:10032600EF640770549000011205F2FF7008120581
:10033600D9F452E152E2EFB401081205D942E1F4D0
:1003460052E29000011205F2B402071205D942E109
:1003560042E29000011205F2B4030A1205D9FFF435
:1003660052E1EF42E29000021205F290FE17F09081
:0F03760000031205F290FE1FF053BA7F7F0022A2
:100A8B00EF5407FE900041F0E4900043F0A3F0ED2B
:100A9B0014600C14601114601824037014801290ED
:100AAB0000427401F08010E4900042F0A3EEF0805D
:100ABB00069000427403F0EF131313541FFF7B01D6
:070ACB007A0079410200A648
:10053100EF131313541FFE7B01EF5407FFEBA807C2
:10054100088002C333D8FCFBEEB408004003020567
:10055100D8900559F828287302057102057E020515
:100561008B0205980205A50205B20205BF0205CC62
:10057100ED4C7005EBF4528022EB428022ED4C7081
:1005810005EBF4529022EB429022ED4C7005EBF416
:1005910052A022EB42A022ED4C7005EBF452B022A6
:1005A100EB42B022ED4C7005EBF452C022EB42C09D
:1005B10022ED4C7005EBF452C822EB42C822ED4CFF
:1005C1007005EBF452E822EB42E822ED4C7005EBAA
:0705D100F452F822EB42F89E
:0105D8002200
:10070600E4FEEF131313541FFD7C01EF5407FFECB7
:10071600A807088002C333D8FCFCEDB40800506873
:1007260090072DF828287302074502074E0207573F
:1007360002076002076902077202077B020784EC60
:1007460042800000AE80803DEC42900000AE90807A
:1007560034EC42A00000AEA0802BEC42B00000AE0C
:10076600B08022EC42C00000AEC08019EC42E80026
:1007760000AEC88010EC42E80000AEE88007EC420C
:0A078600F80000AEF8EE5CFEAF06CE
:010790002246
:100A2B0042006B000042006D000F42006900004164
:030A3B0000680F41
:08000300E490006BF0A3F02271
:050E3700F0E0FF7E0069
:090E3C0090006DEEF0A3EFF0222E
:090E4E00900069E4F0A3EFF0222A
:100A3F0090006DE0FEA3E0FFD390006CE09F90006C
:100A4F006BE09E9000695009A3E0FF7D017C008060
:100A5F0006A3E0FFE4FDFC120E6090006CE004F0D2
:100A6F00700690006BE004F0C390006CE094C890A7
:0C0A7F00006BE094004004E4F0A3F022BF
:100C63001205D92499601B24FC602A240570319055
:100C73000068E004F0E0C3941940227419120E379F
:100C8300801B900068E014F0E0D3940550057405D0
:100C9300120E378008900068740F120E371200038B
:010CA300222E
:100CE20075B80853877F75890043892175985075B7
:100CF2008DFD758BFDD2ACC2ABD28E758CFF758A21
:060D0200A4D2A9D28C224C
:03002300020D5F6C
:090D5F00C0E0C0D075D000C0074F
:090D6800309806C2ACC298AF99A4
:070D7100D007D0D0D0E03222
:090E5700C28C758CFF758AA4227F
:030E6900D28C2206
:03000B00020AD214
:100AD200C0E0C0F0C083C082C0D075D000C000C0EA
:100AE20001C002C003C004C005C006C007120D4306
:100AF200EF7005E4FF120817D007D006D005D00426
:100B0200D003D002D001D000D0D0D082D083D0F098
:030B1200D0E032FE
:03001B00020B15C0
:100B1500C0E0C0F0C083C082C0D075D000C000C0A6
:100B250001C002C003C004C005C006C007120D43C2
:100B3500EF70057F01120817D007D006D005D00445
:100B4500D003D002D001D000D0D0D082D083D0F055
:030B5500D0E032BB
:03006300020B5835
:100B5800C0E0C0F0C083C082C0D075D000C000C063
:100B680001C002C003C004C005C006C007120D437F
:100B7800EF70057F02120817D007D006D005D00401
:100B8800D003D002D001D000D0D0D082D083D0F012
:030B9800D0E03278
:03009B00020B9BBA
:100B9B00C0E0C0F0C083C082C0D075D000C000C020
:100BAB0001C002C003C004C005C006C007120D433C
:100BBB00EF70057F03120817D007D006D005D004BD
:100BCB00D003D002D001D000D0D0D082D083D0F0CF
:030BDB00D0E03235
:0300A300020BDE6F
:100BDE00C0E0C0F0C083C082C0D075D000C000C0DD
:100BEE0001C002C003C004C005C006C007120D43F9
:100BFE00EF70057F04120817D007D006D005D00479
:100C0E00D003D002D001D000D0D0D082D083D0F08B
:030C1E00D0E032F1
:0F0DB3007D607C09ED1D70011C144C70F7DFF1A1
:010DC200220E
:0300000002067A7B
:0C067A00787FE4F6D8FD7581070206C108
:1005D900BB010689828A83E0225002E722BBFE0220
:0905E900E32289828A83E4932253
:1005F200BB010CE58229F582E5833AF583E02250BE
:1006020006E92582F8E622BBFE06E92582F8E22207
:0D061200E58229F582E5833AF583E4932221
:10061F00BC000BBE0029EF8DF084FFADF022E4CCBF
:10062F00F875F008EF2FFFEE33FEEC33FCEE9DEC88
:10063F00984005FCEE9DFE0FD5F0E9E4CEFD22EDCE
:10064F00F8F5F0EE8420D21CFEADF075F008EF2F18
:10065F00FFED33FD4007985006D5F0F222C398FD09
:05066F000FD5F0EA22A6
:060674008A838982E47311
:10068600020026E493A3F8E493A34003F68001F264
:1006960008DFF48029E493A3F85407240CC8C33375
:1006A600C4540F4420C8834004F456800146F6DF44
:1006B600E4800B01020408102040809009F3E47ED8
:1006C600019360BCA3FF543F30E509541FFEE49339
:1006D600A360010ECF54C025E060A840B8E493A300
:1006E600FAE493A3F8E493A3C8C582C8CAC583CA2B
:1006F600F0A3C8C582C8CAC583CADFE9DEE780BEE3
:010A3E0000B7
:00000001FF
