:1015120068656C6C6F206361747320212121210D39
:101522000A0074686520616E676C65206973202506
:04153200640D0A003A
:10149A00E490005FF0A3F09000631206200001C2FE
:1014AA00007F011210CED2AF7FFA12165F7BFF7A4D
:0814BA0015791212011180F0F6
:1015770090012B7402F090012714F0A304F0A30448
:0D158700F0A304F07B017A017927020A5DD0
:0E166F007D01E4FF12107F7D017F0102107FDC
:0E167D007D02E4FF12107F7D027F0102107FCC
:0D000E00E4FDFF12107FE4FD7F0102107F72
:0E168B007D01E4FF12107F7D027F0102107FBF
:0E1699007D02E4FF12107F7D017F0102107FB1
:0C16C20090012CE0FBA3E0FAA3E0F92269
:0B0C750090012CEBF0A3EAF0A3E9F0E3
:100C8000E4A3F0A3F0EA494B70037FFF221216C2DF
:100C9000900002120424FEC36480948240037FFF0C
:100CA00022900150EEF0E490012FF0A3F01216C252
:100CB000900002120424FF3395E0FEC3900130E05F
:100CC0009FEE6480F890012FE0648098503EE0FE33
:100CD000A3E0F5828E83120424FF7D0112161C12FC
:100CE00016C2A3E0FEA3E0FFF5828E83120424FD6A
:100CF000744E2FF58274013EF583EDF0900130E0E3
:0E0D000004F070A990012FE004F080A17F00A4
:010D0E0022C2
:10163F00744E2FF582E43401F583E0FF12009E22F1
:10153600900154E025E02431F582E43401F583E09E
:10154600FF22900136E0FBA3E0FAA3E0F990000445
:0315560002042468
:0B0A5D00900136EBF0A3EAF0A3E9F0F3
:100A6800E4A3F0EA494B70037FFF22121548FEC346
:100A78006480948240037FFF22900135EEF0E49079
:100A88000139F0121548FF900139E0FEC3EF648088
:100A9800F8EE6480985056EEFF3395E0FEEF25E0BF
:100AA800FFEE33FE8F828E83120AF82FF9EA3EFAA0
:100AB800900001120AF8F98F828E83120424FD74C3
:100AC800312FF58274013EF583EDF0E92FF9EA3E06
:100AD800FA900001120424FD74322FF58274013E4D
:0F0AE800F583EDF0900139E004F0020A8B7F00F6
:100AF70022120424FFE4FD12161C900139E0FF3393
:100B070095E0FEEF25E0FFEE33FE900136E0FBA314
:050B1700E0FAA3E0225A
:10107F00900154EFF0ED14600F14601B24027027E1
:10108F00121536E4FDFC80071215367D017C001227
:10109F0010B9E4FDFC800D121536E4FDFC1210B9F9
:1010AF007D017C001217257F002212172590015415
:0F10BF00E025E02432F582E43401F583E0FF22DE
:10161C00EDC3940050057EFF7FFF221211F5E4FE0E
:02162C00FF229B
:1014C200900152ECF0A3EDF0900151EFF0E4FD1227
:1014D200161C900152E07002A3E0700B900151E0E3
:0814E200FFE4FDFC12172522B6
:03172500020BD0E4
:04009E00120D9B2282
:0D0F7E004A00F7FFFFFFFFFFFFFFFFFFFF2F
:070094007F0F7E000216AC95
:04171D00E4FEFF22C5
:031728000216ACFA
:04172100E4FEFF22C1
:1014EA00C3EE64809480401FD3EF94B4EE6480947A
:1014FA008050147C007D091204A6EF2405FDE43E09
:07150A00FCFEAF051216AC58
:0115110022B7
:1015C9009000F7A3E0FFE4FD12161C74FF9000F7EA
:0615D900F0A3F07F0022E8
:0916E2009000F7E0FEA3E0FF22F6
:1015DF009000F7E0F47003A3E0F47E0060047F0155
:0515EF0080027F0022D4
:100FD700A9071215DFE9FF9000F7E4F0A3EFF0AFE0
:100FE70005A3ECF0A3EFF0AF03A3EAF0A3EFF090B3
:100FF7000106E0FFA3E09000FDCFF0A3EFF0900122
:1010070008E0FFA3E09000FFCFF0A3EFF0AF017D72
:101017000312161C7BFF7A007900E4FF121403E425
:07102700FF1215947F002267
:101302001215DF9000F7E4F0A37408F0A37402F062
:10131200A37420F0A37409F0A37460F0E4A3F0A313
:10132200F0A3F0A374B4F09000F7A3E0FF7D0312E2
:10133200161C7BFF7A007900E4FF121403E4FF021B
:02134200159400
:100F8B004100A6004200BF00055800A7000000006A
:100F9B000000000000000000000000000000000046
:040FAB000000000042
:10143A009000C0E02401FFE433FE7C007D06020434
:10144A005125E025E024A7F582E43400F58322251E
:10145A00E025E024A8F582E43400F58322EBF0A32A
:06146A00EAF0A3E9F02204
:10162E009000BF12143DA3E0B505037F01227F0099
:01163E002289
:10164F0012143A9000BFE0B505037F01227F0022FC
:050F140090005AEFF00F
:100F19009000BFE090005BF012162EEF60037FFF98
:100F29002290005BE0FB12143E9000C0E06D60422D
:100F3900EB12144BE0FE90005AE0FFB5062CA3E03B
:100F4900121459E0F9A3E0FAA3E090005CC9121465
:100F5900687B007A007900C00290005CA3E0FAA3E4
:100F6900E0F5828A83D00212065590005BE004F016
:040F790080AF7F00C6
:010F7D002251
:1014030090013AEFF0A312146712164FEF60037FB7
:10141300FF2212143AAF05EFF090013AE0FEEF120B
:10142300144BEEF090013BE0FBA3E0FAA3E0F9EFED
:071433001214591214672284
:10138500900155EFF012162EEF60037FFF229001BA
:1013950055E0FF3395E0FEEF7802C333CE33CED868
:1013A500F9FF24A7F58274003EF583E4F074A82FB5
:0F13B500F58274003EF583E4F0A3F0A3F0FF226D
:10159400900156EFF070061216FD02001E900156DF
:0B15A400E0B4010612170612005E22E0
:1015F400900157EFF070030216FD900157E0B4011B
:0516040003121706228D
:100FAF004200A400024C008A000000000000000074
:040FBF00000000002E
:1015AF00EFF0A3EBF0A3EAF0A3E9F022E02401FFB0
:0A15BF00E433FE7C007D03020451BA
:10102E0090013E1215AF9000A51215BBAE059000B3
:10103E00A4E0B506037FFF229000A5EEF090013EDE
:10104E00E0FFEE25E025E0248AF582E43400F58306
:10105E00EFF090013FE0FBA3E0FAA3E0F9EE25E00C
:10106E0025E0248BF582E43400F5831215B2AF0629
:01107E00224F
:1011B100900158EFF09000A41215BBA3E0B5050310
:1011C1007FFF22900158E0FF3395E0FEEF7802C3E4
:1011D10033CE33CED8F9FF248AF58274003EF583ED
:1011E100E4F0748B2FF58274003EF583E4F0A3F0F4
:0411F100A3F0FF2246
:0916EB009001421215AF7F0022AC
:08000300900159EFF07F00228B
:0A16CE0090010A1215AFE4FEFF229E
:0A16D8009001121215AFE4FEFF228C
:0D16B500900001020424EF131313541F22B0
:1006E500EFD3940750091216B5FED3940340037F48
:1006F5000122EF7035EE700812040BF452935294F8
:100705001216B5B4010812040B4293F45294121652
:10071500B5FEB4020712040B42934294EEB4030AE9
:1007250012040BFEF45293EE4294EF6401703712FB
:1007350016B5FE700812040BF452915292EEB401F4
:100745000812040B4291F452921216B5B402071224
:10075500040B429142921216B5B4030A12040BFE21
:10076500F45291EE4292EF640270371216B5FE70A4
:100775000812040BF452955296EEB4010812040BBC
:100785004295F452961216B5B4020712040B42951F
:1007950042961216B5B4030A12040BFEF45295EEF6
:1007A5004296EF640370371216B5FE700812040BFB
:1007B500F452B152B2EEB4010812040B42B1F45234
:1007C500B21216B5B4020712040B42B142B21216A8
:1007D500B5B4030A12040BFEF452B1EE42B2EF6453
:1007E5000470371216B5FE700812040BF452B3529A
:1007F500B4EEB4010812040B42B3F452B41216B5A8
:10080500B4020712040B42B342B41216B5B4030A7C
:1008150012040BFEF452B3EE42B4EF6405703712C6
:1008250016B5FE700812040BF452C952CAEEB40193
:100835000812040B42C9F452CA1216B5B4020712C3
:10084500040B42C942CA1216B5B4030A12040BFEC0
:10085500F452C9EE42CAEF640670371216B5FE703F
:100865000812040BF452CB52CCEEB4010812040B5F
:1008750042CBF452CC1216B5B4020712040B42CB8C
:1008850042CC1216B5B4030A12040BFEF452CBEE99
:1008950042CCEF640770371216B5FF700812040BCF
:1008A500F452E152E2EFB4010812040B42E1F452B2
:1008B500E21216B5B4020712040B42E142E2121627
:1008C500B5B4030A12040BFFF452E1EF42E27F00D4
:0108D5002200
:1011F500EF5407FE900146F0E4900148F0A3F0EDAE
:1012050014600C146011146018240370148012907B
:1012150001477401F08010E4900147F0A3EEF080DF
:10122500069001477403F01216BBFF7B017A017922
:04123500460206E582
:100BD0001216BBFE7B01EF5407FFEBA8070880024B
:100BE000C333D8FCFBEEB408004003020C74900B36
:100BF000F5F8282873020C0D020C1A020C27020CBF
:100C000034020C41020C4E020C5B020C68ED4C707D
:100C100005EBF4528022EB428022ED4C7005EBF4A0
:100C2000529022EB429022ED4C7005EBF452A02240
:100C3000EB42A022ED4C7005EBF452B022EB42B037
:100C400022ED4C7005EBF452C022EB42C022ED4C79
:100C50007005EBF452C822EB42C822ED4C7005EB54
:100C6000F452E822EB42E822ED4C7005EBF452F826
:040C700022EB42F839
:010C7400225D
:100D9B00E4FE1216BBFD7C01EF5407FFECA807081D
:100DAB008002C333D8FCFCEDB408005068900DBF33
:100DBB00F8282873020DD7020DE0020DE9020DF29F
:100DCB00020DFB020E04020E0D020E16EC42800009
:100DDB0000AE80803DEC42900000AE908034EC423F
:100DEB00A00000AEA0802BEC42B00000AEB0802281
:100DFB00EC42C00000AEC08019EC42E80000AEC867
:100E0B008010EC42E80000AEE88007EC42F80000EE
:070E1B00AEF8EE5CFEAF062D
:010E220022AD
:100FC30042011D000042011F000F42011B000041AE
:030FD300011A0FF1
:08170F00E490011DF0A3F0229B
:0516A700F0E0FF7E00F1
:0916AC0090011FEEF0A3EFF02203
:0916F40090011BE4F0A3EFF022C9
:100E230090014BEBF0A3EAF0A3E9F090014AEFF055
:100E330070051216FD800A90014AE0B401031217EF
:100E43000690011FE0FEA3E0FFD390011EE09F90F8
:100E5300011DE09E90011B5009A3E0FF7D017C0072
:100E63008006A3E0FFE4FDFC12172590011EE004B9
:100E7300F0700690011DE004F0C390011EE094C8D9
:100E830090011DE094004004E4F0A3F090014AE0D7
:100E9300700302001E90014AE0B4010312005E22B7
:1013440012040B2499601B24FC602A24057031903C
:10135400011AE004F0E0C39419402274191216A78C
:10136400801B90011AE014F0E0D394055005740535
:101374001216A7800890011A740F1216A712170FDD
:011384002246
:10006600535443313546324B363053322055415284
:100076005420546573742050726772616D6D6520EB
:0E0086002D2D2D2D206462756732210D0A008C
:1013C400900074E0FBA3E0FAA3E0F922900077E038
:1013D400FCA3E0FDA3E0FEA3E0FF22900077E0F889
:1013E400A3E0F9A3E0FAA3E0FBC322F0A3F0A3F087
:0F13F400A3F022EFF0A3EBF0A3EAF0A3E9F022BD
:0608D6009000741213FAF9
:1008DC00EF64016003020A5A9000DD04F0E4A312F5
:1008EC0013EFA3F0A3F07F28784CE4F608DFFC7F2D
:1008FC00287824E4F608DFFC1213C412040BD394FA
:10090C00C040037F012290000A120424B40104D2D7
:10091C00BC8002C2BC12040BFFE598543F4FF59803
:10092C00EF64C06008EF644060030209E4900002C9
:10093C001205E47F007E607D547C0012052E900031
:10094C0077120614E4FFFE7D01FC1213DF1205C0C2
:10095C0040037F02221213DFE49BFFE49AFE740132
:10096C0099FDE498FC9000771206141213C49000C1
:10097C0001120424FB6401702DC28E538EFE538928
:10098C00BF5389CF438E401213D078081205D18FF4
:10099C008D900077A3A3A3E0F58BC2AB5389BF5313
:1009AC008FFDD28E8063EB6402702A538EEF438EE0
:1009BC0001538EF7438E041213D078081205D18F91
:1009CC00D6900077A3A3A3E0F5D753AFFB538EF7D4
:1009DC00438E1080347F02221213C412040BFF705A
:1009EC0013900008120424B40105438E20801A537E
:1009FC008EDF8015EFB48011900008120424B4012E
:100A0C0005438780800353877F1213C4900009121B
:100A1C000424B40104D2AC8002C2AC9000071204CE
:100A2C0024B40104D29C8002C29C90000B120424BA
:100A3C0054C0FFE5A2543F4FF5A290000C120424C1
:100A4C00B4010543971080035397EF7F00227F0377
:010A5C002277
:101559009000DFE0244CF8A607E004F0C39428408B
:0E15690002E4F09000E0E0700404F0D2992259
:1016090012040BFF600C121559740129F9E43AFA16
:0316190080EE223E
:06171700AE071215592275
:03002300020EA327
:100EA300C0E0C083C082C0D075D000C000C006C0FF
:100EB30007309824C2989000E3E0701C9000E1E0B2
:100EC300C394284002E4F09000E1E0FF04F07424AE
:100ED3002FF8A699A37405F0309927C2999000DFE3
:100EE300E0FF9000DEE0FE6F6013744C2EF8E6F531
:100EF30099E004F0C394284009E4F080059000E0F1
:100F0300E4F0D007D006D000D0D0D082D083D0E098
:010F130032AB
:0210CE00AB076E
:1010D0009000677440F0A37402F09000631213D381
:1010E00090006912061490006E7401F0E4A3F0A35E
:1010F00004F0E4A3F0EBB40105E4A3F08005E49070
:101100000072F0E4900073F0AF037B017A0079671E
:0C1110001208D67BFF7A007966021609EF
:060B1C009000EB1213F73C
:100B2200E49000F31213EF9000F174FFF5F0120459
:100B3200DC45F07003020BCC7F0112165F9000EBD4
:100B4200E0B401E39000E2E0D3940040DAE014F074
:100B520070D59000E1E0D394004067E49000F5F096
:100B6200A3F09000E1E0FFC39000F6E09F9000F553
:100B7200E09400504D9000F3E475F0011204DC742F
:100B82002425F0F8E6FF1215599000EFE0FEA3E0ED
:100B9200FF9000F31213E89FEA9E40169000E1E0F6
:100BA200FF9000F5A3E0FEEF9E9000E1F0AF03AEF0
:100BB20002229000F6E004F070A89000F5E004F044
:0D0BC20080A0E49000E1F0020B29E4FEFFAA
:010BCF002203
:060026009001211213F706
:10002C00E4FDFCD3900126E09D900125E09C401D51
:10003C00900121E0B4010FA31213C78D828C83129F
:10004C000424FF1215590DBD00010C80D6AE04AF6F
:01005C00059E
:01005D002280
:10147000696E2054696D65305F496E7420747474B0
:1014800074200D0A00696E2054696D65315F496EE4
:0A149000742074747474200D0A00B7
:05001E00D28CD2A922E2
:0916FD00C28C758CFF758AA422D1
:05005E00D28ED2AB229E
:09170600C28E758DFF758BA422C3
:03000B0002116877
:10116800C0E0C0F0C083C082C0D075D000C000C04D
:1011780001C002C003C004C005C006C00712162E75
:101188007BFF7A147970120111E4FF120F14D00753
:10119800D006D005D004D003D002D001D000D0D0E2
:0911A800D082D083D0F0D0E032F7
:03001B0002111CB3
:10111C00C0E0C0F0C083C082C0D075D000C000C099
:10112C0001C002C003C004C005C006C00712162EC1
:10113C00EF700E7BFF7A1479851201117F01120F6B
:10114C0014D007D006D005D004D003D002D001D0E3
:0C115C0000D0D0D082D083D0F0D0E032A0
:030063000212394D
:10123900C0E0C0F0C083C082C0D075D000C000C07B
:1012490001C002C003C004C005C006C00712162EA3
:10125900EF70057F02120F14D007D006D005D00415
:10126900D003D002D001D000D0D0D082D083D0F02A
:03127900D0E03290
:03009B0002127CD2
:10127C00C0E0C0F0C083C082C0D075D000C000C038
:10128C0001C002C003C004C005C006C00712162E60
:10129C00EF70057F03120F14D007D006D005D004D1
:1012AC00D003D002D001D000D0D0D082D083D0F0E7
:0312BC00D0E0324D
:0300A3000212BF87
:1012BF00C0E0C0F0C083C082C0D075D000C000C0F5
:1012CF0001C002C003C004C005C006C00712162E1D
:1012DF00EF70057F04120F14D007D006D005D0048D
:1012EF00D003D002D001D000D0D0D082D083D0F0A4
:0312FF00D0E0320A
:0F165F007DA57C06ED1D70011C144C70F7DFF1AA
:01166E002259
:03000000020D0FDF
:0C0D0F00787FE4F6D8FD758173020D5664
:10040B00BB010689828A83E0225002E722BBFE02EF
:09041B00E32289828A83E4932222
:10042400BB010CE58229F582E5833AF583E022508D
:1004340006E92582F8E622BBFE06E92582F8E222D7
:0D044400E58229F582E5833AF583E49322F1
:10045100BC000BBE0029EF8DF084FFADF022E4CC8F
:10046100F875F008EF2FFFEE33FEEC33FCEE9DEC58
:10047100984005FCEE9DFE0FD5F0E9E4CEFD22ED9E
:10048100F8F5F0EE8420D21CFEADF075F008EF2FE8
:10049100FFED33FD4007985006D5F0F222C398FDD9
:0504A1000FD5F0EA2276
:1004A600C2D5EC30E709B2D5E4C39DFDE49CFCEE71
:1004B60030E715B2D5E4C39FFFE49EFE120451C394
:1004C600E49DFDE49CFC800312045130D507C3E48F
:0604D6009FFFE49EFE22E0
:1004DC00A3F8E0C5F025F0F0E582158270021583D3
:0604EC00E0C838F0E82230
:1004F20075F008758200EF2FFFEE33FECD33CDCCC1
:1005020033CCC58233C5829BED9AEC99E582984043
:100512000CF582EE9BFEED9AFDEC99FC0FD5F0D620
:10052200E4CEFBE4CDFAE4CCF9A88222B800C1B94A
:100532000059BA002DEC8BF084CFCECDFCE5F0CB88
:10054200F97818EF2FFFEE33FEED33FDEC33FCEBC1
:1005520033FB10D703994004EB99FB0FD8E5E4F97C
:10056200FA227818EF2FFFEE33FEED33FDEC33FC69
:10057200C933C910D7059BE99A4007EC9BFCE99A5D
:10058200F90FD8E0E4C9FAE4CCFB2275F010EF2FA2
:10059200FFEE33FEED33FDCC33CCC833C810D707A2
:1005A2009BEC9AE899400AED9BFDEC9AFCE899F8DD
:0E05B2000FD5F0DAE4CDFBE4CCFAE4C8F92270
:1005C000EB9FF5F0EA9E42F0E99D42F0E89C45F091
:0105D0002208
:1005D100E8600FECC313FCED13FDEE13FEEF13FF08
:0305E100D8F1222C
:1005E400BB010DE58229F582E5833AF5830206769F
:1005F4005007E92582F8020669BBFE07E92582F85F
:10060400020682E58229F582E5833AF58302068FA4
:0C061400ECF0A3EDF0A3EEF0A3EFF02259
:10062000A8828583F0D083D0821206371206371253
:100630000637120637E473E493A3C583C5F0C58378
:10064000C8C582C8F0A3C583C5F0C583C8C582C824
:010650002287
:060651008A838982E47334
:1000A600E5122465F582E43400F583E0051222901A
:1000B6000062301903900065E475F00112069F0294
:1000C600040B2012E97F2ED2128018EF540F2490D1
:1000D600D43440D4FF30160BEF24BFB41A005003BB
:1000E6002461FFE513600215130516E51670020577
:1000F6001530190E900062E475F00112069FEF02AA
:1001060006570217177403D2198003E4C219F512B1
:100116009000621206B6E4F513F515F516E51360C0
:10012600077F201200E980F57514FFC213C212C2C0
:1001360014C215C217C218C21A1200B5FF700D30CC
:1001460019057F001200FAAF16AE1522B4255FC25C
:10015600D5C2161200B5FF24D0B40A00501A75F0A5
:100166000A781330D50508B6FF0106C6A426F62080
:10017600D5047002D21580D924CFB41A00EF5004EA
:10018600C2E5D2160202FBD21380C6D21280C0D2BA
:100196001480BCD2D580BAD21780B47F201200E971
:1001A6002014077401B5130040F11200A6FF1200D7
:1001B600E9020123D21AD21880951200A6FB12007A
:1001C600A6FA1200A6F94A4B700679CC7A037BFF91
:1001D60020142EE513602A7E008E82758300120499
:1001E6002460060EEE651470F0C2D5EBC0E0EAC0DE
:1001F600E0E9C0E0EE120342D0E0F9D0E0FAD0E048
:10020600FB12040BFF60AAEBC0E0EAC0E0E9C0E025
:100216001200E9D0E02401F9D0E03400FAD0E0FB86
:10022600E5140460DCD514D980877BFF7A03793E18
:10023600D214809C791080027908C218C21A8008EC
:10024600D2D5790A8004790AC2D5E514047002F57C
:1002560014E4FAFDFEFF1200A6FC7B08201313121D
:1002660000A6FD7B1030120A1200A6FE1200A6FFA1
:100276007B20EC3382D592D55013C3E43012069F0F
:10028600FFE49EFEE42013039DFDE49CFCE4CBF812
:10029600C213EC700CCFCECDCCE824F8F870F38006
:1002A60017C3EF33FFEE33FEED33FDEC33FCEB33D8
:1002B600FB994002FB0FD8E9EB301305F8D0E0C4F8
:1002C60048B213C0E00AEC4D4E4F78207B0070C256
:1002D600EAB5140040BCC0E0120344D0F0D0E020E0
:1002E6001304C4C0E0C4B213C0F01200D2D0F0D5DB
:1002F600F0EB0201231206BF01C053023A580191E6
:100306004C018D42023E4F02464402464901A64335
:08031600024C55023046023092
:10031E004502304703EC5001952D01992E01BC2B5F
:10032E00019D2301BA2003D52A015548000001B4CE
:10033E003F3F3F00790AA2D5201514301709B91096
:10034E00020404B9080104A2D520180250010420A9
:10035E0014689214B513005034C0E07F2030151984
:10036E007F30A21472187217500F12039BC214C260
:10037E0018C217C21A7F30800F301703E9C0E0127F
:10038E0000E9301703D0E0F9D0E0B513CC301717E1
:10039E007F30B9100C1200E97F583016077F788035
:1003AE0003B908031200E93014057F2D0200E97F1E
:1003BE0020201AF87F2B2018F322921480CF286E5B
:1003CE00756C6C2900D2131200A63013F8C2137884
:1003DE001330D50108F60201552D5043495812002D
:1003EE00A62403B405004001E49003E7931200DA5B
:0D03FE00743A1200DAD21575130402023AA7
:100D1B0002149AE493A3F8E493A34003F68001F240
:100D2B0008DFF48029E493A3F85407240CC8C333D9
:100D3B00C4540F4420C8834004F456800146F6DFA8
:100D4B00E4800B0102040810204080900F7EE47EAB
:100D5B00019360BCA3FF543F30E509541FFEE4939D
:100D6B00A360010ECF54C025E060A840B8E493A364
:100D7B00FAE493A3F8E493A3C8C582C8CAC583CA8F
:100D8B00F0A3C8C582C8CAC583CADFE9DEE780BE47
:010FD600001A
:10065700BB010689828A83F0225002F722BBFE0182
:02066700F3227C
:0D066900E6FB08E6F908E6FA08E6CBF82201
:0C067600E0F8A3E0F9A3E0FAA3E0FB2207
:0D068200E2FB08E2F908E2FA08E2CBF822F8
:10068F00E493F8740193F9740293FA740393FB22C1
:10069F00F8E0FBA3A3E0F925F0F0E58215827002E4
:0706AF001583E0FA38F02288
:0906B600EBF0A3EAF0A3E9F02245
:1006BF00D083D082F8E4937012740193700DA3A3CA
:1006CF0093F8740193F5828883E4737402936860DE
:0606DF00EFA3A3A380DFDE
:00000001FF
